0233896640876012017010123554-77850+166667FM-15+002499999V0200901N00571030481CN009999199-00401-00701099191ADDGA1021+001221999GA2041+030481999GA3071+045721999GE19MSL   +99999+99999GF199999021999001221999999MA1099151098785MW1401OC100821REMMET096METAR NZCM 012355Z 09011G16KT 9999 VCFG FEW004 SCT100 BKN150 M04/M07 A2928 RMK SLP919 VCFG SE-S=
0279896640876012017010200004-77850+166667FM-12+002499999V0200901N005719999999N011000199-00451-00741099191ADDAY121021AY221021GA1021+001201071GA2999+999999031GA3999+999999001GE19MSL   +99999+99999GF106991021999001201999999KA1120M-00401KA2120N-00561MA1099165098781MD1710071+9999MW1401REMSYN09489664 31261 60911 11045 21074 39878 49919 57007 74022 82631 333 11040 21056 56344 59019 82704=
0211896640876012017010202554-77850+166667FM-15+002499999V0200801N005710365819N009999199-00401-00701099081ADDGA1021+000911999GA2071+036581999GA3071+045721999GE19MSL   +99999+99999GF199999021999000911999999MA1099051098675REMMET088METAR NZCM 020255Z 08011KT 9999 FEW003 BKN120 BKN150 M04/M07 A2925 RMK SLP908 FG DSNT W=
0235896640876012017010203004-77850+166667FM-12+002499999V0200801N005719999999N011000199-00431-00721099081ADDAY121021AY221021GA1011+000901071GA2999+999999031GA3999+999999001GE19MSL   +99999+99999GF106991011999000901999999MA1099045098661MD1710121+9999MW1401REMSYN07689664 41161 60811 11043 21072 39866 49908 57012 74022 81672 333 56344 81703=
0200896640876012017010205554-77850+166667FM-15+002499999V0200801N003610365819N009999199+00001-01101098961ADDGA1021+001521999GA2071+036581999GA3071+045721999GE19MSL   +99999+99999GF199999021999001521999999MA1098921098555REMMET077METAR NZCM 020555Z 08007KT 9999 FEW005 BKN120 BKN150 00/M11 A2921 RMK SLP896=
0213896640876012017010206004-77850+166667FM-12+002499999V0200801N003619999999N011000199-00031-01081098961ADDGA1011+001501071GA2031+036001031GA3999+999999001GE19MSL   +99999+99999GF106991011999001501999999MA1098935098551MD1710111+9999REMSYN07689664 32261 60807 11003 21108 39855 49896 57011 81671 333 56344 81705 83362=
0210896640876012017010208554-77850+166667FM-15+002499999V0200801N00261030481CN009999199+00001-01301098871ADDGA1021+021341999GA2041+030481999GA3071+045721999GE19MSL   +99999+99999GF199999021999021341999999MA1098851098465REMMET087METAR NZCM 020855Z 08005KT 9999 FEW070 SCT100 BKN150 00/M13 A2919 RMK SLP887 FG DSNT W=
0225896640876012017010209004-77850+166667FM-12+002499999V0200801N002619999999N011000199+00001-01291098871ADDAY121021AY221021GA1011+021001031GA2041+030001031GE19MSL   +99999+99999GF106991011999021001999999MA1098845098461MD1810091+9999MW1401REMSYN08289664 41861 60805 10000 21129 39846 49887 58009 74022 84071 333 56044 81357 84360=
0222896640876012017010211554-77850+166667FM-15+002499999V0209999V00311048771CN009999199-00301-01101098731ADDGA1021+010671999GA2021+039621999GA3041+048771999GE19MSL   +99999+99999GF199999021999010671999999MA1098681098325REMMET099METAR NZCM 021155Z COR VRB06KT 9999 FEW035 FEW130 SCT160 M03/M11 A2914 RMK SLP873 FATA MORGANA S-W=
0269896640876012017010212004-77850+166667FM-12+002499999V0209999V003119999999N011000199-00291-01061098731ADDGA1011+010501061GA2999+999999031GA3999+999999001GE19MSL   +99999+99999GF104991011999010501999999KA1240M+00051KA2240N-00581MA1098705098321MD1710141+9999REMSYN10689664 32661 49906 11029 21106 39832 49873 57014 81571 333 10005 21058 56344 59064 81635 99114 99115 99116=
0192896640876012017010214554-77850+166667FM-15+002499999V0209999C000019999999N009999199+00001-01201098531ADDGA1021+039621999GA2021+048771999GE19MSL   +99999+99999GF199999021999039621999999MA1098481098135REMMET085METAR NZCM 021455Z 00000KT 9999 FEW130 FEW160 00/M12 A2908 RMK SLP853 FATA MORGANA S=
0197896640876012017010215004-77850+166667FM-12+002499999V0209999C000019999999N011000199-00011-01201098531ADDGA1011+039001031GA2999+999999001GE19MSL   +99999+99999GF102991011999039001999999MA1098505098121MD1710201+9999REMSYN07689664 42961 20000 11001 21120 39812 49853 57020 81072 333 56044 81363 99114=
0178896640876012017010217554-77850+166667FM-15+002499999V0209999C000019999999N009999199-00101-01401098331ADDGA1021+039621999GA2021+048771999GE19MSL   +99999+99999GF199999021999039621999999MA1098311097935REMMET071METAR NZCM 021755Z 00000KT 9999 FEW130 FEW160 M01/M14 A2903 RMK SLP833=
0191896640876012017010218004-77850+166667FM-12+002499999V0209999C000019999999N011000199-00121-01401098331ADDGA1011+039001031GA2999+999999001GE19MSL   +99999+99999GF101991011999039001999999MA1098295097921MD1710201+9999REMSYN07089664 32961 10000 11012 21140 39792 49833 57020 81071 333 56044 81363=
0177896640876012017010220554-77850+166667FM-15+002499999V0209999V001519999999N009999199+00001-01401098071ADDGA1021+006101999GA2021+030481999GE19MSL   +99999+99999GF199999021999006101999999MA1098041097675REMMET070METAR NZCM 022055Z VRB03KT 9999 FEW020 FEW100 00/M14 A2895 RMK SLP807=
0169896640876012017010223554-77850+166667FM-15+002499999V0203101N004119999999N009999199+00201-01601097801ADDGA1021+030481999GE19MSL   +99999+99999GF199999021999030481999999MA1097761097405REMMET078METAR NZCM 022355Z 31008KT 9999 FEW100 02/M16 A2887 RMK SLP780 FATA MORGANA W=
0225896640876012017010300004-77850+166667FM-12+002499999V0203101N004119999999N011000199+00221-01601097801ADDGA1011+030001031GE19MSL   +99999+99999GF101991011999030001999999KA1120M+00251KA2120N-00321MA1097765097391MD1710271+9999REMSYN09489664 32961 13108 10022 21160 39739 49780 57027 81070 333 10025 21032 56040 59139 81360 99116=
0165896640876012017010302554-77850+166667FM-15+002499999V0203401N005110274319N009999199+00101-01201097541ADDGA1071+027431999GE19MSL   +99999+99999GF199999071999027431999999MA1097491097145OC100821REMMET066METAR NZCM 030255Z 34010G16KT 9999 BKN090 01/M12 A2879 RMK SLP754=
0175896640876012017010303004-77850+166667FM-12+002499999V0203401N005110270019N011000199+00111-01251097541ADDGA1061+027001031GE19MSL   +99999+99999GF106991061999027001999999MA1097505097131MD1710261+9999REMSYN07089664 42961 63410 10011 21125 39713 49754 57026 86070 333 56040 86359=
0210896640876012017010305554-77850+166667FM-15+002499999V0203401N004610213419N009999199+00301-01501097361ADDGA1021+009141999GA2071+021341999GA3071+027431999GE19MSL   +99999+99999GF199999021999009141999999MA1097321096965REMMET087METAR NZCM 030555Z 34009KT 9999 FEW030 BKN070 BKN090 03/M15 A2874 RMK SLP736 SN DSNT S=
0225896640876012017010306004-77850+166667FM-12+002499999V0203401N00461021001CN011000199+00271-01471097361ADDAY121021AY221021GA1021+009001061GA2031+021001031GE19MSL   +99999+99999GF107991021999009001999999MA1097335096961MD1710171+9999MW1151REMSYN08289664 31561 73409 10027 21147 39696 49736 57017 71522 82570 333 56440 82630 83357=
0188896640876012017010308554-77850+166667FM-15+002499999V0203401N006210213419N009999199+00201-01501097211ADDGA1021+009141999GA2081+021341999GE19MSL   +99999+99999GF199999021999009141999999MA1097191096815OC100931REMMET073METAR NZCM 030855Z 34012G18KT 9999 FEW030 OVC070 02/M15 A2870 RMK SLP721=
0197896640876012017010309004-77850+166667FM-12+002499999V0203401N006210210019N011000199+00221-01501097211ADDGA1021+009001061GA2081+021001041GE19MSL   +99999+99999GF108991021999009001999999MA1097175096801MD1710061+9999REMSYN07689664 42561 83412 10022 21150 39680 49721 57006 8257/ 333 56040 82630 88457=
0221896640876012017010311554-77850+166667FM-15+002499999V0203401N008810152419N009999199+00001-01001097121ADDGA1021+003051999GA2071+015241999GA3081+021341999GE19MSL   +99999+99999GF199999021999003051999999MA1097091096725OC101241REMMET090METAR NZCM 031155Z 34017G24KT 9999 FEW010 BKN050 OVC070 00/M10 A2867 RMK SLP712 SN DSNT S=
0291896640876012017010312004-77850+166667FM-12+002499999V0203401N00881015001CN011000199+00041-01051097121ADDAY121021AY221021GA1021+003001071GA2051+015001061GA3081+021001041GE19MSL   +99999+99999GF108991021999003001999999KA1240M+00271KA2240N+00021MA1097095096721MD1710081+9999MW1151REMSYN10689664 31461 83417 10004 21105 39672 49712 57008 71522 8657/ 333 10027 20002 56049 59160 82710 85650 88457=
0253896640876012017010314554-77850+166667FM-15+002499999V0203401N006210134119N009999199+00101-01201097201ADDGA1021+003051999GA2071+013411999GA3081+015241999GE19MSL   +99999+99999GF199999021999003051999999MA1097161096805OC100981OD149901391350REMMET108METAR NZCM 031455Z 34012G19KT 9999 FEW010 BKN044 OVC050 01/M12 A2869 RMK PK WND 35027/1313 SLP720 SN DSNT S=
0247896640876012017010315004-77850+166667FM-12+002499999V0203401N00621013201CN011000199+00091-01191097201ADDAY121021AY221021GA1021+003001071GA2051+013201061GA3081+015001061GE19MSL   +99999+99999GF108991021999003001999999MA1097175096801MD1310081+9999MW1151REMSYN08889664 41461 83412 10009 21119 39680 49720 53008 71522 885// 333 56399 82710 85644 88650=
0227896640876012017010317554-77850+166667FM-15+002499999V0203401N007210152419N009999199+00001-00801097391ADDGA1021+003051999GA2071+015241999GA3081+018291999GE19MSL   +99999+99999GF199999021999003051999999MA1097361096995MW1711OC100981REMMET090METAR NZCM 031755Z 34014G19KT 9999 -SN FEW010 BKN050 OVC060 00/M08 A2875 RMK SNB45 SLP739=
0286896640876012017010318004-77850+166667FM-12+002499999V0203401N00721015001CN011000199-00051-00841097391ADDAA106000021AL19900031AY171021AY221021GA1021+003001071GA2051+015001061GA3071+018001061GE19MSL   +99999+99999GF108991021999003001999999MA1097365096991MD1210191+9999MW1711REMSYN10689664 11461 83414 11005 21084 39699 49739 52019 69901 77172 885// 333 56399 82710 85650 87656 90910 93197=
0210896640876012017010320554-77850+166667FM-15+002499999V0203401N006710076219N002400199+00101-00301999999ADDGA1021+001521999GA2021+003051999GA3081+007621999GE19MSL   +99999+99999GF199999021999001521999999MW1101MW2711REMMET090METAR NZCM 032055Z 34013KT 2400 -SN BR FEW005 FEW010 OVC025 01/M03 RMK SNE1820B1855 SLPNO=
0225896640876012017010321004-77850+166667FM-12+002499999V0203401N00671007501CN002400199+00131-00301097615ADDAY171021AY221021GA1011+001501071GA2071+007501061GE19MSL   +99999+99999GF108991011999001501999999MA1097585097211MD1210221+9999MW1711REMSYN08289664 41224 83413 10013 21030 39721 52022 77172 885// 333 56399 81705 87625 96010=
0231896640876012017010323554-77850+166667FM-15+002499999V0203401N00621004571CN002400199-00201-00301097791ADDGA1021+002131999GA2041+004571999GA3081+007621999GE19MSL   +99999+99999GF199999021999002131999999MA1097761097395MW1101MW2711OC100881REMMET088METAR NZCM 032355Z 34012G17KT 2400 -SN BR FEW007 SCT015 OVC025 M02/M03 A2887 RMK SLP779=
0314896640876012017010400004-77850+166667FM-12+002499999V0203401N006219999999N002400199-00191-00291097791ADDAA112000331AL19900031AY171021AY271021GA1011+002101071GA2041+004501061GE19MSL   +99999+99999GF108991011999002101999999KA1120M+00121KA2120N-00221MA1097755097381MD1210171+9999MW1711REMSYN12489664 11324 83412 11019 21029 39738 49779 52017 69932 77177 885// 333 10012 21022 56399 59001 81707 84615 90956 93197 96010=
0228896640876012017010402554-77850+166667FM-15+002499999V0203401V005110076219N003200199-00201-00301098001ADDGA1041+002131999GA2071+007621999GA3081+009141999GE19MSL   +99999+99999GF199999041999002131999999MA1097971097605MW1101MW2711REMMET093METAR NZCM 040255Z 34010KT 310V020 3200 -SN BR SCT007 BKN025 OVC030 M02/M03 A2893 RMK SLP800=
0231896640876012017010403004-77850+166667FM-12+002499999V0203401N00511009001CN003200199-00191-00301098001ADDAY171021AY271021GA1031+002101071GA2041+009001061GE19MSL   +99999+99999GF108991031999002101999999MA1097965097591MD1210211+9999MW1711REMSYN08889664 41332 83410 11019 21030 39759 49800 52021 77177 885// 333 56399 83707 84630 96010=
0196896640876012017010405554-77850+166667FM-15+002499999V0203201N004110009119N000800199-00201-00301098241ADDGA1071+000911999GA2081+003051999GE19MSL   +99999+99999GF199999071999000911999999MA1098201097835MW1101MW2731REMMET077METAR NZCM 040555Z 32008KT 0800 SN BR BKN003 OVC010 M02/M03 A2900 RMK SLP824=
0248896640876012017010406004-77850+166667FM-12+002499999V0203201N004110009019N000800199-00211-00281098241ADDAA106002031AL19900031AY171021AY271021GA1061+000901071GE19MSL   +99999+99999GF108991061999000901999999MA1098205097831MD1210241+9999MW1731REMSYN10089664 11108 83208 11021 21028 39783 49824 52024 60021 77377 886// 333 56399 86703 90973 93197 96010=
0173896640876012017010408554-77850+166667FM-15+002499999V0203501N006210036619N001200199-00201-00301999999ADDGA1081+003661999GE19MSL   +99999+99999GF199999081999003661999999MA1098481999999MW1101MW2711REMMET070METAR NZCM 040855Z 35012KT 1200 -SN BR OVC012 M02/M03 A2908 RMK SLPNO=
0203896640876012017010409004-77850+166667FM-12+002499999V0203501N006210036019N001200199-00191-00321098515ADDAY171021AY271021GA1081+003601071GE19MSL   +99999+99999GF108991081999003601999999MA1098485098101MD1210271+9999MW1711REMSYN07689664 41412 83512 11019 21032 39810 52027 77177 886// 333 56399 88712 96010=
0188896640876012017010411554-77850+166667FM-15+002499999V0203301N003610015219N009999199-00201-00301098811ADDGA1071+001521999GA2081+003661999GE19MSL   +99999+99999GF199999071999001521999999MA1098781098405MW1711REMMET075METAR NZCM 041155Z 33007KT 9999 -SN BKN005 OVC012 M02/M03 A2917 RMK SLP881=
0308896640876012017010412004-77850+166667FM-12+002499999V0203301N003610015019N011000199-00221-00291098811ADDAA112004031AL19900231AY171021AY271021GA1051+001501071GA2081+003601071GE19MSL   +99999+99999GF108991051999001501999999KA1240M-00111KA2240N-00221MA1098785098401MD1210301+9999MW1711REMSYN11889664 11261 83307 11022 21029 39840 49881 52030 60042 77177 886// 333 11011 21022 56399 58168 85705 88712 90983 93102=
0216896640876012017010414554-77850+166667FM-15+002499999V0203301N003610012219N001600199-00201-00301099091ADDGA1071+001221999GA2081+003051999GE19MSL   +99999+99999GF199999071999001221999999MA1999995098685MW1101MW2711REMMET078METAR NZCM 041455Z 33007KT 1600 -SN BR BKN004 OVC010 M02/M03 A2952 RMK SLP909=EQDQ01999.7 3APOA  
0231896640876012017010415004-77850+166667FM-12+002499999V0203301N003610012019N001600199-00201-00271099091ADDAY171021AY271021GA1051+001201071GA2081+003001071GE19MSL   +99999+99999GF108991051999001201999999MA1099055098671MD1210271+9999MW1711REMSYN08889664 41216 83307 11020 21027 39867 49909 52027 77177 886// 333 56399 85704 88710 96010=
0184896640876012017010417554-77850+166667FM-15+002499999V0209999V002110021319N009999199-00201-00401099431ADDGA1071+002131999GA2071+014631999GE19MSL   +99999+99999GF199999071999002131999999MA1099391099025REMMET077METAR NZCM 041755Z VRB04KT 9999 BKN007 BKN048 M02/M04 A2935 RMK SNE05 SLP943=
0264896640876012017010418004-77850+166667FM-12+002499999V0209999V002110021019N011000199-00201-00361099431ADDAA118004031AL19900231AY171021AY221021GA1051+002101071GA2071+014401061GE19MSL   +99999+99999GF107991051999002101999999MA1099395099011MD1210341+9999MW1221REMSYN10089664 11361 79904 11020 21036 39901 49943 52034 60043 72272 87500 333 56300 85707 87648 90983 93102=
0193896640876012017010420554-77850+166667FM-15+002499999V0209999V002610146319N009999199-00201-00401099761ADDGA1021+003051999GA2071+014631999GE19MSL   +99999+99999GF199999021999003051999999MA1099731099355REMMET086METAR NZCM 042055Z VRB05KT 9999 FEW010 BKN048 M02/M04 A2945 RMK SLP976 SN DSNT S-W-NW=
0225896640876012017010421004-77850+166667FM-12+002499999V0209999V00261014401CN011000199-00201-00441099761ADDAY121021AY221021GA1011+003001061GA2071+014401061GE19MSL   +99999+99999GF107991011999003001999999MA1099735099351MD1210341+9999MW1151REMSYN08289664 41461 79905 11020 21044 39935 49976 52034 71522 87500 333 56300 81610 87648=
0218896640876012017010423554-77850+166667FM-15+002499999V0201601N00821014631CN009999199-00101-00301100021ADDGA1021+003051999GA2041+014631999GA3071+054861999GE19MSL   +99999+99999GF199999021999003051999999MA1100002099615REMMET095METAR NZCM 042355Z 16016KT 9999 FEW010 SCT048 BKN180 M01/M03 A2953 RMK SLP002 SN DSNT S AND NW=
0308896640876012017010500004-77850+166667FM-12+002499999V0201601N008219999999N011000199-00151-00341100021ADDAA124004031AL19900231AY121021AY221021GA1011+003001071GA2031+014401061GE19MSL   +99999+99999GF106991011999003001999999KA1120M-00121KA2120N-00331MA1999999099601MD1210251+9999MW1151REMSYN11889664 11461 61616 11015 21034 39960 40002 52025 60044 71522 83502 333 11012 21033 56303 58222 81710 83648 90973 93102=
0224896640876012017010502554-77850+166667FM-15+002499999V0201701N010810198119N009999199+00101-00101999999ADDGA1021+003051999GA2021+014631999GA3071+019811999GE19MSL   +99999+99999GF199999021999003051999999MA1100242999999OC101341REMMET093METAR NZCM 050255Z COR 17021G26KT 9999 FEW010 FEW048 BKN065 01/M01 A2960 RMK SLPNO SN DSNT S=
0219896640876012017010503004-77850+166667FM-12+002499999V0201701N01081018001CN011000199+00061-00301100285ADDAY121021AY221021GA1011+003001071GA2061+018001061GE19MSL   +99999+99999GF107991011999003001999999MA1999999099871MD1210271+9999MW1151REMSYN07689664 41461 71721 10006 21030 39987 52027 71522 87500 333 56300 81710 86656=
0218896640876012017010505554-77850+166667FM-15+002499999V0201601N00821021341CN009999199-00101-00301100381ADDGA1021+003051999GA2041+021341999GA3081+054861999GE19MSL   +99999+99999GF199999021999003051999999MA1100342099975REMMET095METAR NZCM 050555Z 16016KT 9999 FEW010 SCT070 OVC180 M01/M03 A2963 RMK SLP038 SN DSNT S AND NW=
0247896640876012017010506004-77850+166667FM-12+002499999V0201601N008210540019N011000199-00131-00331100381ADDAY121021AY221021GA1011+003001071GA2031+021001031GA3051+054001021GE19MSL   +99999+99999GF108991011999003001999999MA1999999099961MD1310091+9999MW1151REMSYN08889664 31461 81616 11013 21033 39996 40038 53009 71522 81676 333 56338 81710 83357 85268=
0201896640876012017010508554-77850+166667FM-15+002499999V0201601N007210146319N009999199-00101-00301100491ADDGA1041+002131999GA2071+014631999GA3081+054861999GE19MSL   +99999+99999GF199999041999002131999999MA1100442100085REMMET078METAR NZCM 050855Z 16014KT 9999 SCT007 BKN048 OVC180 M01/M03 A2966 RMK SLP049=
0212896640876012017010511554-77850+166667FM-15+002499999V0200901N003610036619N009999199-00201-00401100541ADDGA1041+002131999GA2071+003661999GA3081+006101999GE19MSL   +99999+99999GF199999041999002131999999MA1100512100125REMMET089METAR NZCM 051155Z 09007KT 9999 SCT007 BKN012 OVC020 M02/M04 A2968 RMK SLP054 FG DSNT SE=
0219896640876012017010517554-77850+166667FM-15+002499999V0200701N005110213419N009999199-00301-00501100381ADDGA1041+002131999GA2071+021341999GA3081+027431999GE19MSL   +99999+99999GF199999041999002131999999MA1100342099965REMMET096METAR NZCM 051755Z 07010KT 9999 SCT007 BKN070 OVC090 M03/M05 A2963 RMK SLP038 FG DSNT SE AND SW=
0283896640876012017010518004-77850+166667FM-12+002499999V0200701N005110270019N011000199-00351-00491100381ADDAA106000091AL19900031AY171021AY221021GA1031+002101071GA2081+027001041GE19MSL   +99999+99999GF108991031999002101999999MA1999999099961MD1610091+9999MW1401REMSYN10089664 11361 80710 11035 21049 39996 40038 56009 69901 74072 8367/ 333 56389 83707 88459 90951 93197=EQDQ01  00002PRCP06
0201896640876012017010520554-77850+166667FM-15+002499999V0200401N006210487719N009999199-00101-00701100221ADDGA1021+002131999GA2021+006101999GA3081+048771999GE19MSL   +99999+99999GF199999021999002131999999MA1100202099815REMMET078METAR NZCM 052055Z 04012KT 9999 FEW007 FEW020 OVC160 M01/M07 A2959 RMK SLP022=
0197896640876012017010521004-77850+166667FM-12+002499999V0200401N006210480019N011000199-00141-00661100221ADDGA1011+002101071GA2081+048001021GE19MSL   +99999+99999GF108991011999002101999999MA1999999099801MD1710161+9999REMSYN07689664 42361 80412 11014 21066 39980 40022 57016 81507 333 56308 81707 88266=
0177896640876012017010523554-77850+166667FM-15+002499999V0201001N002610487719N009999199+00001-00501100111ADDGA1021+009141999GA2071+048771999GE19MSL   +99999+99999GF199999021999009141999999MA1100072099705REMMET070METAR NZCM 052355Z 10005KT 9999 FEW030 BKN160 00/M05 A2955 RMK SLP011=
0299896640876012017010600004-77850+166667FM-12+002499999V0201001N00261048001CN011000199+00001-00491100111ADDAA112000091AL19900031GA1011+009001061GA2071+048001021GE19MSL   +99999+99999GF107991011999009001999999KA1120M+00041KA2120N-00361MA1999999099701MD1610101+9999REMSYN11289664 12561 71005 10000 21049 39970 40011 56010 69902 81508 333 10004 21036 56308 58010 81630 87266 90971 93197=EQDQ01  00002PRCP12
0200896640876012017010602554-77850+166667FM-15+002499999V0209999V002610609619N009999199+00001-00801099901ADDGA1021+009141999GA2021+039621999GA3071+060961999GE19MSL   +99999+99999GF199999021999009141999999MA1099861099495REMMET077METAR NZCM 060255Z VRB05KT 9999 FEW030 FEW130 BKN200 00/M08 A2949 RMK SLP990=
0213896640876012017010603004-77850+166667FM-12+002499999V0209999V00261060001CN011000199+00021-00801099901ADDGA1011+009001061GA2071+060001001GA3999+999999001GE19MSL   +99999+99999GF107991011999009001999999MA1099865099481MD1710221+9999REMSYN07689664 42561 79905 10002 21080 39948 49990 57022 81571 333 56388 81630 87070=
0177896640876012017010605554-77850+166667FM-15+002499999V0203401N004110609619N009999199+00101-00701099711ADDGA1021+039621999GA2071+060961999GE19MSL   +99999+99999GF199999021999039621999999MA1099661099305REMMET070METAR NZCM 060555Z 34008KT 9999 FEW130 BKN200 01/M07 A2943 RMK SLP971=
0176896640876012017010608554-77850+166667FM-15+002499999V0203301N002610365819N009999199+00101-00401999999ADDGA1071+036581999GA2071+060961999GE19MSL   +99999+99999GF199999071999036581999999MA1099531999999REMMET069METAR NZCM 060855Z 33005KT 9999 BKN120 BKN200 01/M04 A2939 RMK SLPNO=
0185896640876012017010609004-77850+166667FM-12+002499999V0203301N002610360019N011000199+00091-00451099885ADDGA1071+036001031GA2999+999999001GE19MSL   +99999+99999GF107991071999036001999999MA1099855099471MD1310181+9999REMSYN06489664 42961 73305 10009 21045 39947 53018 87071 333 56088 87362=
0198896640876012017010611554-77850+166667FM-15+002499999V0203401N005710670619N009999199-00201-00501099381ADDGA1041+036581999GA2071+067061999GE19MSL   +99999+99999GF199999041999036581999999MA1099361098975REMMET091METAR NZCM 061155Z 34011KT 9999 SCT120 BKN220 M02/M05 A2934 RMK SLP938 FG DSNT SE-S AND SW=
0231896640876012017010612004-77850+166667FM-12+002499999V0203401N005710660019N011000199-00171-00511099381ADDAY121021AY221021GA1041+036001031GA2071+066001021GE19MSL   +99999+99999GF107991041999036001999999MA1099345098961MD1710511+9999MW1401REMSYN08889664 31961 73411 11017 21051 39896 49938 57051 74022 84077 333 56088 59116 84362 87272=
0248896640876012017010612554-77850+166667FM-15+002499999V0200701N00211036581CN009999199-01002-01101099361ADDGA1021+003051999GA2041+036581999GA3071+057911999GE19MSL   +99999+99999GF199999021999003051999999MA1099361098945MW1401REMMET119METAR NZCM 061255Z 07004KT 9999 VCFG FEW010 SCT120 BKN190 M10/M11 A2934 RMK SLP936 VCFG GRID NW-NE GRID24004KT SDG/HDG=
0208896640876012017010614554-77850+166667FM-15+002499999V0209999C000010304819N009999199-00201-00801999999ADDGA1021+001521999GA2071+030481999GA3071+067061999GE19MSL   +99999+99999GF199999021999001521999999MA1099191999999REMMET085METAR NZCM 061455Z 00000KT 9999 FEW005 BKN100 BKN220 M02/M08 A2929 RMK SLPNO VCFG SE=
0177896640876012017010615004-77850+166667FM-12+002499999V0209999C000019999999N011000199-00251-00791099225ADDGA1999+001501999GE19MSL   +99999+99999GF107991999999001501999999MA1099195098811MD1619999+9999REMSYN07289664 41261 70000 11025 21079 39881 56688 57015 74122 81671 81705 86360=
0212896640876012017010617554-77850+166667FM-15+002499999V0203401N007210304819N009999199-00101-00401099151ADDGA1021+000611999GA2071+030481999GA3071+067061999GE19MSL   +99999+99999GF199999021999000611999999MA1099121098745OC101031REMMET081METAR NZCM 061755Z 34014G20KT 9999 FEW002 BKN100 BKN220 M01/M04 A2927 RMK SLP915=
0213896640876012017010618004-77850+166667FM-12+002499999V0203401N00721030001CN011000199-00141-00431099151ADDGA1011+000601071GA2071+030001031GA3999+999999001GE19MSL   +99999+99999GF107991011999000601999999MA1099125098741MD1610071+9999REMSYN07689664 32161 73414 11014 21043 39874 49915 56007 81671 333 56688 81702 87360=
0188896640876012017010620554-77850+166667FM-15+002499999V0203501N006710304819N009999199-00101-00501999999ADDGA1021+006101999GA2071+030481999GE19MSL   +99999+99999GF199999021999006101999999MA1099091999999OC101081REMMET073METAR NZCM 062055Z 35013G21KT 9999 FEW020 BKN100 M01/M05 A2926 RMK SLPNO=
0191896640876012017010621004-77850+166667FM-12+002499999V0203501N00671030001CN011000199-00061-00461099135ADDGA1011+006001061GA2061+030001031GE19MSL   +99999+99999GF107991011999006001999999MA1099105098721MD1810021+9999REMSYN07089664 42561 73513 11006 21046 39872 58002 81570 333 56680 81620 86360=
0201896640876012017010623554-77850+166667FM-15+002499999V0203201N005110304819N009999199-00101-00401099151ADDGA1021+006101999GA2071+030481999GA3071+039621999GE19MSL   +99999+99999GF199999021999006101999999MA1099121098745REMMET078METAR NZCM 062355Z 32010KT 9999 FEW020 BKN100 BKN130 M01/M04 A2927 RMK SLP915=
0203896640876012017010700004-77850+166667FM-12+002499999V0203201N00511030001CN011000199-00081-00371099151ADDGA1011+006001061GA2061+030001031GE19MSL   +99999+99999GF107991011999006001999999MA1099125098741MD1310021+9999REMSYN08289664 32561 73210 11008 21037 39874 49915 53002 81570 333 56680 59096 81620 86360=
0210896640876012017010702554-77850+166667FM-15+002499999V0203301N005110304819N009999199+00001-00401999999ADDGA1021+006101999GA2071+030481999GA3071+039621999GE19MSL   +99999+99999GF199999021999006101999999MA1099121999999OC100771REMMET079METAR NZCM 070255Z 33010G15KT 9999 FEW020 BKN100 BKN130 00/M04 A2927 RMK SLPNO=
0191896640876012017010703004-77850+166667FM-12+002499999V0203301N00511030001CN011000199+00021-00451099145ADDGA1011+006001061GA2051+030001031GE19MSL   +99999+99999GF106991011999006001999999MA1099115098731MD1610011+9999REMSYN07089664 42561 63310 10002 21045 39873 56001 81570 333 56680 81620 85360=
0211896640876012017010705554-77850+166667FM-15+002499999V0203201N00571039621CN009999199+00001-00401099221ADDGA1021+006101999GA2021+030481999GA3021+039621999GE19MSL   +99999+99999GF199999021999006101999999MA1099191098815OC100881REMMET080METAR NZCM 070555Z 32011G17KT 9999 FEW020 FEW100 FEW130 00/M04 A2929 RMK SLP922=
0191896640876012017010706004-77850+166667FM-12+002499999V0203201N005719999999N011000199+00001-00381099221ADDGA1011+006001061GA2999+999999031GE19MSL   +99999+99999GF102991011999006001999999MA1099185098801MD1310071+9999REMSYN07089664 32561 23211 10000 21038 39880 49922 53007 81570 333 56680 81620=
0177896640876012017010708554-77850+166667FM-15+002499999V0203101N003619999999N009999199+00001-00301099301ADDGA1021+003051999GA2021+030481999GE19MSL   +99999+99999GF199999021999003051999999MA1099251098895REMMET070METAR NZCM 070855Z 31007KT 9999 FEW010 FEW100 00/M03 A2931 RMK SLP930=
0225896640876012017010709004-77850+166667FM-12+002499999V0201401N00571009001CN011000199+00391-00761099591ADDAY121021AY221021GA1011+003001071GA2061+009001061GE19MSL   +99999+99999GF106991011999003001999999MA1099555099171MD1210131+9999MW1361REMSYN08289664 41461 61411 10039 21076 39917 49959 52013 73622 87500 333 56400 81710 86630=
0187896640876012017010711054-77850+166667FM-15+002499999V0209999C000010304819N008000199-00301-00401099461ADDGA1041+001831999GA2071+030481999GE19MSL   +99999+99999GF199999041999001831999999MA1099421099055MW1101REMMET074METAR NZCM 071105Z 00000KT 8000 BR SCT006 BKN100 M03/M04 A2936 RMK SLP946=
0187896640876012017010711554-77850+166667FM-15+002499999V0209999C000010304819N008000199-00301-00401099461ADDGA1041+001831999GA2071+030481999GE19MSL   +99999+99999GF199999041999001831999999MA1099421099055MW1101REMMET074METAR NZCM 071155Z 00000KT 8000 BR SCT006 BKN100 M03/M04 A2936 RMK SLP946=
0263896640876012017010712004-77850+166667FM-12+002499999V0209999C000019999999N008000199-00331-00451099461ADDAY111021AY211021GA1041+001801071GA2999+999999031GE19MSL   +99999+99999GF105991041999001801999999KA1240M+00071KA2240N-00341MA1099425099041MD1210151+9999MW1101REMSYN09489664 41258 50000 11033 21045 39904 49946 52015 71011 84670 333 10007 21034 56880 58008 84706=
0240896640876012017010714554-77850+166667FM-15+002499999V0201401N005710091419N009999199-00401-00801099591ADDGA1021+003051999GA2071+009141999GE19MSL   +99999+99999GF199999021999003051999999MA1099561099185MW1361OD149901391140REMMET113METAR NZCM 071455Z COR 14011KT 9999 DRSN FEW010 BKN030 M04/M08 A2940 RMK PK WND 14027/1317 SLP959 BLSN DSNT SE-S=
0244896640876012017010717554-77850+166667FM-15+002499999V0201301V007710121919N009999199-00401-00701099751ADDGA1021+003051999GA2071+012191999GA3071+054861999GE19MSL   +99999+99999GF199999021999003051999999MA1099731099335MW1361OC101131REMMET107METAR NZCM 071755Z 13015G22KT 090V170 9999 DRSN FEW010 BKN040 BKN180 M04/M07 A2945 RMK SLP975 BLSN DSNT SE=
0225896640876012017010718004-77850+166667FM-12+002499999V0201301N007719999999N011000199-00441-00751099751ADDAY121021AY221021GA1011+003001071GA2041+009001061GE19MSL   +99999+99999GF107991011999003001999999MA1099725099341MD1210171+9999MW1361REMSYN08289664 31461 71315 11044 21075 39934 49975 52017 73622 86501 333 56404 81710 84630=
0244896640876012017010720554-77850+166667FM-15+002499999V0201301N008210106719N009999199-00401-00701099851ADDGA1021+003051999GA2071+010671999GA3071+054861999GE19MSL   +99999+99999GF199999021999003051999999MA1099801099435OC101291OD149901391170REMMET099METAR NZCM 072055Z 13016G25KT 9999 FEW010 BKN035 BKN180 M04/M07 A2947 RMK PK WND 17027/1801 SLP985=
0197896640876012017010721004-77850+166667FM-12+002499999V0201301N00821010501CN011000199-00431-00731099851ADDGA1011+003001071GA2061+010501061GE19MSL   +99999+99999GF107991011999003001999999MA1099815099431MD1210091+9999REMSYN07689664 42461 71316 11043 21073 39943 49985 52009 86501 333 56404 81710 86635=
0260896640876012017010723554-77850+166667FM-15+002499999V0201501N008810143319N009999199-00401-00601099871ADDGA1021+002741999GA2021+007621999GA3071+014331999GE19MSL   +99999+99999GF199999021999002741999999MA1099831099455OC101241OD149901391150REMMET115METAR NZCM 072355Z COR 15017G24KT 9999 FEW009 FEW025 BKN047 M04/M06 A2948 RMK PK WND 15027/2253 SLP987 BLSN DSNT S=
0241896640876012017010800004-77850+166667FM-12+002499999V0201501N00881014101CN011000199-00381-00651099871ADDGA1011+002701071GA2071+014101061GE19MSL   +99999+99999GF107991011999002701999999KA1120M-00181KA2120N-00481MA1099835099451MD1310021+9999REMSYN09489664 32361 71517 11038 21065 39945 49987 53002 87500 333 11018 21048 56400 58071 81709 87647=
0261896640876012017010802554-77850+166667FM-15+002499999V0201501N010810182919N009999199-00401-00701099861ADDGA1021+007621999GA2071+018291999GA3071+054861999GE19MSL   +99999+99999GF199999021999007621999999MA1099831099445OC101391OD149901641140REMMET116METAR NZCM 080255Z 15021G27KT 9999 FEW025 BKN060 BKN180 M04/M07 A2948 RMK PK WND 14032/0157 SLP986 BLSN DSNT S-W-NW=
0197896640876012017010803004-77850+166667FM-12+002499999V0201501N01081018001CN011000199-00361-00671099861ADDGA1011+007501061GA2061+018001061GE19MSL   +99999+99999GF107991011999007501999999MA1099825099441MD1810011+9999REMSYN07689664 42561 71521 11036 21067 39944 49986 58001 86501 333 56404 81625 86656=
0256896640876012017010805554-77850+166667FM-15+002499999V0201401N010310167619N009999199-00301-00701099901ADDGA1021+007621999GA2071+016761999GA3071+054861999GE19MSL   +99999+99999GF199999021999007621999999MA1099861099495OC101441OD149901591160REMMET111METAR NZCM 080555Z 14020G28KT 9999 FEW025 BKN055 BKN180 M03/M07 A2949 RMK PK WND 16031/0317 SLP990 BLSN DSNT S=
0197896640876012017010806004-77850+166667FM-12+002499999V0201401N01031015001CN011000199-00311-00671099901ADDGA1011+007501061GA2071+015001061GE19MSL   +99999+99999GF107991011999007501999999MA1099865099481MD1210041+9999REMSYN07689664 32561 71420 11031 21067 39948 49990 52004 87501 333 56404 81625 87650=
0219896640876012017010808554-77850+166667FM-15+002499999V0200701N005710274319N009999199-00301-00701099941ADDGA1041+006101999GA2071+027431999GA3071+054861999GE19MSL   +99999+99999GF199999041999006101999999MA1099901099535OC100821REMMET088METAR NZCM 080855Z 07011G16KT 9999 SCT020 BKN090 BKN180 M03/M07 A2950 RMK SCSL S SLP994=
0213896640876012017010809004-77850+166667FM-12+002499999V0200701N00571027001CN011000199-00311-00671099941ADDGA1031+006001061GA2031+027001031GA3999+999999001GE19MSL   +99999+99999GF107991031999006001999999MA1099905099521MD1110041+9999REMSYN07689664 42561 70711 11031 21067 39952 49994 51004 84572 333 56444 83620 83359=
0229896640876012017010811554-77850+166667FM-15+002499999V0200501N007710335319N009999199-00401-00701099961ADDGA1021+006101999GA2071+033531999GA3071+054861999GE19MSL   +99999+99999GF199999021999006101999999MA1099932099545OC101081REMMET098METAR NZCM 081155Z 05015G21KT 9999 FEW020 BKN110 BKN180 M04/M07 A2951 RMK SCSL S ACSL SE-S SLP996=
0221896640876012017010814554-77850+166667FM-15+002499999V0200601N006710304819N009999199-00401-00801099861ADDGA1021+009141999GA2071+030481999GA3071+054861999GE19MSL   +99999+99999GF199999021999009141999999MA1099831099445REMMET098METAR NZCM 081455Z 06013KT 9999 FEW030 BKN100 BKN180 M04/M08 A2948 RMK SCSL S ACSL N AND S SLP986=
0213896640876012017010815004-77850+166667FM-12+002499999V0200601N00671030001CN011000199-00371-00801099861ADDGA1011+009001061GA2051+030001031GA3999+999999011GE19MSL   +99999+99999GF107991011999009001999999MA1099825099441MD1710101+9999REMSYN07689664 42561 70613 11037 21080 39944 49986 57010 81549 333 56044 81630 85360=
0201896640876012017010817554-77850+166667FM-15+002499999V0200701N005710304819N009999199-00501-00701099841ADDGA1021+009141999GA2071+030481999GA3071+054861999GE19MSL   +99999+99999GF199999021999009141999999MA1099801099425REMMET078METAR NZCM 081755Z 07011KT 9999 FEW030 BKN100 BKN180 M05/M07 A2947 RMK SLP984=
0219896640876012017010818004-77850+166667FM-12+002499999V0200701N005710300019N011000199-00461-00751099841ADDGA1011+009001061GA2031+024001031GA3051+030001031GE19MSL   +99999+99999GF106991011999009001999999MA1099815099431MD1610011+9999REMSYN08289664 32561 60711 11046 21075 39943 49984 56001 81572 333 56444 81630 83358 85360=
0201896640876012017010820554-77850+166667FM-15+002499999V0200601N005710259119N009999199-00301-00801099791ADDGA1021+009141999GA2071+025911999GA3071+054861999GE19MSL   +99999+99999GF199999021999009141999999MA1099761099385REMMET078METAR NZCM 082055Z 06011KT 9999 FEW030 BKN085 BKN180 M03/M08 A2946 RMK SLP979=
0213896640876012017010821004-77850+166667FM-12+002499999V0200601N00571024001CN011000199-00341-00761099791ADDGA1011+009001061GA2051+024001031GA3999+999999001GE19MSL   +99999+99999GF106991011999009001999999MA1099755099371MD1810061+9999REMSYN07689664 42561 60611 11034 21076 39937 49979 58006 81572 333 56444 81630 85358=
0201896640876012017010823554-77850+166667FM-15+002499999V0200301N00511025911CN009999199-00201-00901099781ADDGA1021+009141999GA2041+025911999GA3071+054861999GE19MSL   +99999+99999GF199999021999009141999999MA1099731099375REMMET078METAR NZCM 082355Z 03010KT 9999 FEW030 SCT085 BKN180 M02/M09 A2945 RMK SLP978=
0257896640876012017010900004-77850+166667FM-12+002499999V0200301N005119999999N011000199-00181-00921099781ADDGA1011+009001061GA2041+024001031GA3999+999999001GE19MSL   +99999+99999GF106991011999009001999999KA1120M-00141KA2120N-00491MA1099745099361MD1610011+9999REMSYN09489664 32561 60310 11018 21092 39936 49978 56001 81572 333 11014 21049 56044 59009 81630 84358=
0200896640876012017010902554-77850+166667FM-15+002499999V0201001N004110304819N009999199+00001-01001099721ADDGA1021+015241999GA2071+030481999GA3071+054861999GE19MSL   +99999+99999GF199999021999015241999999MA1099691099315REMMET077METAR NZCM 090255Z 10008KT 9999 FEW050 BKN100 BKN180 00/M10 A2944 RMK SLP972=
0213896640876012017010903004-77850+166667FM-12+002499999V0201001N00411030001CN011000199-00021-01011099721ADDGA1011+015001061GA2071+030001041GA3999+999999001GE19MSL   +99999+99999GF107991011999015001999999MA1099685099301MD1710061+9999REMSYN07689664 42761 71008 11002 21101 39930 49972 57006 81571 333 56044 81650 87460=
0200896640876012017010905554-77850+166667FM-15+002499999V0209999V002610304819N009999199+00001-01201099711ADDGA1021+018291999GA2071+030481999GA3071+060961999GE19MSL   +99999+99999GF199999021999018291999999MA1099661099305REMMET077METAR NZCM 090555Z VRB05KT 9999 FEW060 BKN100 BKN200 00/M12 A2943 RMK SLP971=
0213896640876012017010906004-77850+166667FM-12+002499999V0209999V002619999999N011000199-00041-01181099711ADDGA1011+018001061GA2041+030001031GA3999+999999001GE19MSL   +99999+99999GF106991011999018001999999MA1099675099291MD1610011+9999REMSYN07689664 32761 69905 11004 21118 39929 49971 56001 81572 333 56044 81656 84360=
0201896640876012017010908554-77850+166667FM-15+002499999V0209999V003110304819N009999199-00101-01101099681ADDGA1041+021341999GA2071+030481999GA3071+054861999GE19MSL   +99999+99999GF199999041999021341999999MA1099661099275REMMET078METAR NZCM 090855Z VRB06KT 9999 SCT070 BKN100 BKN180 M01/M11 A2943 RMK SLP968=
0197896640876012017010909004-77850+166667FM-12+002499999V0209999V00311030001CN011000199-00091-01101099681ADDGA1031+021001031GA2041+030001031GE19MSL   +99999+99999GF107991031999021001999999MA1099655099271MD1610021+9999REMSYN07689664 42861 79906 11009 21110 39927 49968 56002 85072 333 56044 83357 84360=
0201896640876012017010911554-77850+166667FM-15+002499999V0200901N004610365819N009999199-00101-01301099691ADDGA1021+024381999GA2071+036581999GA3071+054861999GE19MSL   +99999+99999GF199999021999024381999999MA1099661099285REMMET078METAR NZCM 091155Z 09009KT 9999 FEW080 BKN120 BKN180 M01/M13 A2943 RMK SLP969=
0241896640876012017010912004-77850+166667FM-12+002499999V0200901N00461036001CN011000199-00081-01321099691ADDGA1021+024001031GA2041+036001031GE19MSL   +99999+99999GF107991021999024001999999KA1240M+00011KA2240N-00161MA1099665099281MD1310011+9999REMSYN09489664 32861 70909 11008 21132 39928 49969 53001 86072 333 10001 21016 56044 59026 82358 84362=
0201896640876012017010914554-77850+166667FM-15+002499999V0200501N003110335319N009999199-00101-01301099641ADDGA1021+024381999GA2071+033531999GA3071+054861999GE19MSL   +99999+99999GF199999021999024381999999MA1099591099235REMMET078METAR NZCM 091455Z 05006KT 9999 FEW080 BKN110 BKN180 M01/M13 A2941 RMK SLP964=
0197896640876012017010915004-77850+166667FM-12+002499999V0200501N00311033001CN011000199-00101-01321099641ADDGA1021+024001031GA2051+033001031GE19MSL   +99999+99999GF107991021999024001999999MA1099605099221MD1810061+9999REMSYN07689664 42861 70506 11010 21132 39922 49964 58006 86072 333 56044 82358 85361=
0199896640876012017010917554-77850+166667FM-15+002499999V0209999V002610335319N009999199+00101-01301999999ADDGA1021+024381999GA2071+033531999GA3071+054861999GE19MSL   +99999+99999GF199999021999024381999999MA1099631999999REMMET076METAR NZCM 091755Z VRB05KT 9999 FEW080 BKN110 BKN180 01/M13 A2942 RMK SLPNO=
0191896640876012017010918004-77850+166667FM-12+002499999V0209999V002619999999N011000199+00111-01291099665ADDGA1011+024001031GA2041+033001031GE19MSL   +99999+99999GF106991011999024001999999MA1099635099251MD1110031+9999REMSYN07089664 32861 69905 10011 21129 39925 51003 85071 333 56044 81358 84361=
0199896640876012017010920554-77850+166667FM-15+002499999V0200601N004110304819N009999199+00001-01301999999ADDGA1021+024381999GA2071+030481999GA3071+054861999GE19MSL   +99999+99999GF199999021999024381999999MA1099661999999REMMET076METAR NZCM 092055Z 06008KT 9999 FEW080 BKN100 BKN180 00/M13 A2943 RMK SLPNO=
0187896640876012017010923554-77850+166667FM-15+002499999V0200701N005710457219N009999199+00001-01001999999ADDGA1041+024381999GA2071+045721999GE19MSL   +99999+99999GF199999041999024381999999MA1099691999999OC100721REMMET072METAR NZCM 092355Z 07011G14KT 9999 SCT080 BKN150 00/M10 A2944 RMK SLPNO=
0197896640876012017011000004-77850+166667FM-12+002499999V0200701N005710450019N011000199+00001-00981099745ADDGA1031+024001031GA2061+045001011GE19MSL   +99999+99999GF106991031999024001999999MA1099715099331MD1210051+9999REMSYN07689664 32861 60711 10000 21098 39933 52005 83071 333 56044 59003 83358 86165=
0201896640876012017011002554-77850+166667FM-15+002499999V0200401N00721030481CN009999199-00101-01301099731ADDGA1021+015241999GA2041+030481999GA3041+045721999GE19MSL   +99999+99999GF199999021999015241999999MA1099691099325REMMET078METAR NZCM 100255Z 04014KT 9999 FEW050 SCT100 SCT150 M01/M13 A2944 RMK SLP973=
0213896640876012017011003004-77850+166667FM-12+002499999V0200401N007219999999N011000199-00111-01281099731ADDGA1011+015001061GA2041+030001031GA3999+999999001GE19MSL   +99999+99999GF104991011999015001999999MA1099695099311MD1810021+9999REMSYN07689664 42761 40414 11011 21128 39931 49973 58002 81571 333 56044 81650 84360=
0176896640876012017011005554-77850+166667FM-15+002499999V0201101N005119999999N009999199+00001-01501999999ADDGA1021+021341999GA2021+030481999GE19MSL   +99999+99999GF199999021999021341999999MA1099691999999REMMET069METAR NZCM 100555Z 11010KT 9999 FEW070 FEW100 00/M15 A2944 RMK SLPNO=
0176896640876012017011008554-77850+166667FM-15+002499999V0200301N003119999999N009999199+00201-01601999999ADDGA1021+024381999GA2021+036581999GE19MSL   +99999+99999GF199999021999024381999999MA1099691999999REMMET069METAR NZCM 100855Z 03006KT 9999 FEW080 FEW120 02/M16 A2944 RMK SLPNO=
0153896640876012017011011554-77850+166667FM-15+002499999V0200501N004619999999N009999199+00101-01701999999ADDGA1021+030481999GE19MSL   +99999+99999GF199999021999030481999999MA1099731999999REMMET062METAR NZCM 101155Z 05009KT 9999 FEW100 01/M17 A2945 RMK SLPNO=
0155896640876012017011014554-77850+166667FM-15+002499999V0200901N004619999999N009999199-00101-01601099691ADDGA1021+030481999GE19MSL   +99999+99999GF199999021999030481999999MA1099661099285REMMET064METAR NZCM 101455Z 09009KT 9999 FEW100 M01/M16 A2943 RMK SLP969=
0175896640876012017011015004-77850+166667FM-12+002499999V0200901N004619999999N011000199-00101-01621099691ADDGA1011+060001001GE19MSL   +99999+99999GF101991011999060001999999MA1099665099281MD1610081+9999REMSYN07089664 42961 10909 11010 21162 39928 49969 56008 81070 333 56040 81070=
0133896640876012017011017554-77850+166667FM-15+002499999V0200701N006712200019N009999199-00301-01301099731ADDGF100991999999999999999999MA1099691099325REMMET080METAR NZCM 101755Z 07013KT 9999 SKC M03/M13 A2944 RMK SLP973 FATA MORGANA SW-NW=
0111896640876012017011018004-77850+166667FM-12+002499999V0200701N006719999999N011000199-00311-01291099731ADDMA1099695099311MD1110051+9999REMSYN07089664 32961 00713 11031 21129 39931 49973 51005 333 99115 99116 99117=
0133896640876012017011020554-77850+166667FM-15+002499999V0200701N004612200019N009999199-00201-01301099751ADDGF100991999999999999999999MA1099731099345REMMET080METAR NZCM 102055Z 07009KT 9999 SKC M02/M13 A2945 RMK SLP975 FATA MORGANA SE-SW=
0111896640876012017011021004-77850+166667FM-12+002499999V0200701N004619999999N011000199-00161-01341099751ADDMA1099725099341MD1210031+9999REMSYN07089664 42961 00709 11016 21134 39934 49975 52003 333 99113 99114 99115=
0165896640876012017011023554-77850+166667FM-15+002499999V0200901N004119999999N009999199+00001-01401099831ADDGA1021+021341999GE19MSL   +99999+99999GF199999021999021341999999MA1099801099425OC100771REMMET066METAR NZCM 102355Z 09008G15KT 9999 FEW070 00/M14 A2947 RMK SLP983=
0219896640876012017011100004-77850+166667FM-12+002499999V0200901N004119999999N011000199-00011-01401099831ADDGA1011+021001031GE19MSL   +99999+99999GF101991011999021001999999KA1120M+00081KA2120N-00351MA1099795099411MD1310071+9999REMSYN08889664 32861 10908 11001 21140 39941 49983 53007 81070 333 10008 21035 56000 58008 81357=
0166896640876012017011102554-77850+166667FM-15+002499999V0201401N006219999999N009999199-00101-01001099821ADDGA1021+021341999GE19MSL   +99999+99999GF199999021999021341999999MA1099801099415OC101081REMMET067METAR NZCM 110255Z 14012G21KT 9999 FEW070 M01/M10 A2947 RMK SLP982=
0175896640876012017011103004-77850+166667FM-12+002499999V0201401N006219999999N011000199-00081-00991099821ADDGA1011+021001031GE19MSL   +99999+99999GF101991011999021001999999MA1099795099411MD1410001+9999REMSYN07089664 42861 11412 11008 21099 39941 49982 54000 81070 333 56000 81357=
0165896640876012017011105554-77850+166667FM-15+002499999V0201101N005119999999N009999199+00001-01201099871ADDGA1021+021341999GE19MSL   +99999+99999GF199999021999021341999999MA1099831099465OC100981REMMET066METAR NZCM 110555Z 11010G19KT 9999 FEW070 00/M12 A2948 RMK SLP987=
0175896640876012017011106004-77850+166667FM-12+002499999V0201101N005119999999N011000199-00041-01211099871ADDGA1011+021001031GE19MSL   +99999+99999GF101991011999021001999999MA1099835099451MD1310041+9999REMSYN07089664 32861 11110 11004 21121 39945 49987 53004 81070 333 56000 81357=
0167896640876012017011108554-77850+166667FM-15+002499999V0201301V003619999999N009999199-00101-01301099971ADDGA1021+021341999GE19MSL   +99999+99999GF199999021999021341999999MA1099932099565REMMET076METAR NZCM 110855Z COR 13007KT 100V170 9999 FEW070 M01/M13 A2951 RMK SLP997=
0175896640876012017011109004-77850+166667FM-12+002499999V0201301N003619999999N011000199-00131-01291099971ADDGA1011+021001031GE19MSL   +99999+99999GF101991011999021001999999MA1999999099551MD1210101+9999REMSYN07089664 42861 11307 11013 21129 39955 49997 52010 81070 333 56000 81357=
0189896640876012017011111554-77850+166667FM-15+002499999V0200601N005719999999N009999199-00401-01101100041ADDGA1021+010671999GA2021+021341999GE19MSL   +99999+99999GF199999021999010671999999MA1100002099625OC100931REMMET074METAR NZCM 111155Z 06011G18KT 9999 FEW035 FEW070 M04/M11 A2953 RMK SLP004=
0217896640876012017011114554-77850+166667FM-15+002499999V0200801N006219999999N009999199-00501-00901100041ADDGA1021+009141999GA2021+054861999GE19MSL   +99999+99999GF199999021999009141999999MA1100002099625OC100931REMMET102METAR NZCM 111455Z 08012G18KT 9999 FEW030 FEW180 M05/M09 A2953 RMK SLP004 BLSN DSNT S FATA MORGANA NW=
0197896640876012017011115004-77850+166667FM-12+002499999V0200801N006219999999N011000199-00551-00931100041ADDGA1011+009001061GA2999+999999001GE19MSL   +99999+99999GF101991011999009001999999MA1999999099621MD1510001+9999REMSYN07689664 42561 10812 11055 21093 39962 40004 55000 81502 333 56002 81630 99117=
0217896640876012017011117554-77850+166667FM-15+002499999V0200901N004119999999N009999199-00301-01101100111ADDGA1021+009141999GA2021+054861999GE19MSL   +99999+99999GF199999021999009141999999MA1100072099695OC100931REMMET102METAR NZCM 111755Z 09008G18KT 9999 FEW030 FEW180 M03/M11 A2955 RMK SLP011 BLSN DSNT S FATA MORGANA SW=
0197896640876012017011118004-77850+166667FM-12+002499999V0200901N004119999999N011000199-00321-01141100111ADDGA1011+009001061GA2999+999999001GE19MSL   +99999+99999GF102991011999009001999999MA1999999099691MD1310071+9999REMSYN07689664 32561 20908 11032 21114 39969 40011 53007 81502 333 56002 81630 99115=
0197896640876012017011120554-77850+166667FM-15+002499999V0201001V00721054861CN009999199-00501-00901100131ADDGA1041+009141999GA2041+054861999GE19MSL   +99999+99999GF199999041999009141999999MA1100102099715OC101131REMMET082METAR NZCM 112055Z 10014G22KT 060V130 9999 SCT030 SCT180 M05/M09 A2956 RMK SLP013=
0191896640876012017011121004-77850+166667FM-12+002499999V0201001N007219999999N011000199-00531-00911100131ADDGA1031+009001061GA2999+999999001GE19MSL   +99999+99999GF103991031999009001999999MA1999999099711MD1210021+9999REMSYN07089664 42561 31014 11053 21091 39971 40013 52002 83501 333 56002 83630=
0308896640876012017011200004-77850+166667FM-12+002499999V0200901N006210048019N011000199-00561-00731100301ADDAA106000021AL19900031AY171021AY221021GA1041+002701071GA2061+004801031GE19MSL   +99999+99999GF108991041999002701999999KA1120M-00281KA2120N-00571MA1999999099881MD1310171+9999MW1711REMSYN11889664 11361 80912 11056 21073 39988 40030 53017 69901 77172 885// 333 11028 21057 56800 58047 84709 86316 90931 93197=
0199896640876012017011202554-77850+166667FM-15+002499999V0200601N007210109719N009999199-00401-00901100271ADDGA1021+003051999GA2071+010971999GE19MSL   +99999+99999GF199999021999003051999999MA1100242099855MW1711OC100981REMMET078METAR NZCM 120255Z 06014G19KT 9999 -SN FEW010 BKN036 M04/M09 A2960 RMK SLP027=
0225896640876012017011203004-77850+166667FM-12+002499999V0200601N00721010801CN011000199-00431-00921100271ADDAY171021AY271021GA1011+003001071GA2071+010801061GE19MSL   +99999+99999GF107991011999003001999999MA1999999099851MD1810031+9999MW1711REMSYN08289664 41461 70614 11043 21092 39985 40027 58003 77177 87500 333 56400 81710 87636=
0220896640876012017011205554-77850+166667FM-15+002499999V0200801N007210112819N009999199-00301-00901100321ADDGA1021+006101999GA2071+011281999GA3071+033531999GE19MSL   +99999+99999GF199999021999006101999999MA1100272099905OC101131REMMET089METAR NZCM 120555Z 08014G22KT 9999 FEW020 BKN037 BKN110 M03/M09 A2961 RMK SNE0415 SLP032=
0264896640876012017011206004-77850+166667FM-12+002499999V0200801N00721011101CN011000199-00331-00891100321ADDAA106000021AL19900031AY171021AY221021GA1011+006001061GA2051+011101061GE19MSL   +99999+99999GF106991011999006001999999MA1999999099901MD1210051+9999MW1011REMSYN10089664 11561 60814 11033 21089 39990 40032 52005 69901 70172 85570 333 56440 81620 85637 90923 93197=
0223896640876012017011208554-77850+166667FM-15+002499999V0200801N007710335319N009999199-00401-00901100291ADDGA1021+012191999GA2071+033531999GA3041+045721999GE19MSL   +99999+99999GF199999021999012191999999MA1100272099875MW1361OC101031REMMET086METAR NZCM 120855Z 08015G20KT 9999 DRSN FEW040 BKN110 SCT150 M04/M09 A2961 RMK SLP029=
0241896640876012017011209004-77850+166667FM-12+002499999V0200801N00771033001CN011000199-00391-00921100291ADDAY121021AY221021GA1011+012001061GA2061+033001031GA3999+999999001GE19MSL   +99999+99999GF107991011999012001999999MA1999999099871MD1610031+9999MW1361REMSYN08289664 41661 70815 11039 21092 39987 40029 56003 73622 81572 333 56444 81640 86361=
0212896640876012017011211554-77850+166667FM-15+002499999V0200801N005110457219N009999199-00501-00901100331ADDGA1041+027431999GA2071+045721999GE19MSL   +99999+99999GF199999041999027431999999MA1100302099915MW1361OC100821REMMET091METAR NZCM 121155Z 08010G16KT 9999 DRSN SCT090 BKN150 M05/M09 A2962 RMK SLP033 BLSN DSNT S=
0308896640876012017011212004-77850+166667FM-12+002499999V0200801N00511045001CN011000199-00481-00861100331ADDAA112000021AL19900031AY121021AY221021GA1041+027001031GA2031+045001001GE19MSL   +99999+99999GF107991041999027001999999KA1240M-00261KA2240N-00551MA1999999099911MD1310041+9999MW1361REMSYN11889664 11961 70810 11048 21086 39991 40033 53004 69902 73622 84072 333 11026 21055 56044 58029 84359 83065 90973 93197=
0249896640876012017011214554-77850+166667FM-15+002499999V0200801N005710243819N009999199-00601-00901100321ADDGA1021+010671999GA2071+024381999GA3071+045721999GE19MSL   +99999+99999GF199999021999010671999999MA1100272099905MW1361OC100881REMMET112METAR NZCM 121455Z 08011G17KT 9999 DRSN FEW035 BKN080 BKN150 M06/M09 A2961 RMK ACSL N SCSL S SLP032 BLSN DSNT S=
0241896640876012017011215004-77850+166667FM-12+002499999V0200801N00571024001CN011000199-00571-00951100321ADDAY121021AY221021GA1011+010501061GA2061+024001031GA3999+999999001GE19MSL   +99999+99999GF107991011999010501999999MA1999999099901MD1810011+9999MW1361REMSYN08289664 41661 70811 11057 21095 39990 40032 58001 73622 81542 333 56044 81635 86358=
0213896640876012017011217554-77850+166667FM-15+002499999V0209999V003110228619N009999199-00401-00901100301ADDGA1021+006101999GA2071+022861999GA3071+036581999GE19MSL   +99999+99999GF199999021999006101999999MA1100272099885REMMET090METAR NZCM 121755Z VRB06KT 9999 FEW020 BKN075 BKN120 M04/M09 A2961 RMK SLP030 BLSN DSNT S=
0236896640876012017011218004-77850+166667FM-12+002499999V0209999V00311021001CN011000199-00441-00941100301ADDAA118000021AL19900031GA1011+006001061GA2061+021001031GE19MSL   +99999+99999GF107991011999006001999999MA1999999099881MD1610021+9999REMSYN09489664 12561 79906 11044 21094 39988 40030 56002 69903 81570 333 56440 81620 86357 90983 93197=
0228896640876012017011220524-77850+166667FM-15+002499999V0200901N00621018291CN009999199-00401-01001100331ADDGA1021+007621999GA2041+018291999GA3071+021341999GE19MSL   +99999+99999GF199999021999007621999999MA1100302099915OC100931REMMET097METAR NZCM 122052Z 09012G18KT 9999 FEW025 SCT060 BKN070 M04/M10 A2962 RMK SLP033 BLSN DSNT SE-SW=
0197896640876012017011221004-77850+166667FM-12+002499999V0200901N006219999999N011000199-00431-00961100331ADDGA1011+007501061GA2041+018001061GE19MSL   +99999+99999GF107991011999007501999999MA1999999099911MD1310031+9999REMSYN07689664 42561 70912 11043 21096 39991 40033 53003 84570 333 56320 81625 84656=
0173896640876012017011223554-77850+166667FM-15+002499999V0201401N007719999999N009999199+99999+99999100261ADDMW1165OC101391REMMET128METAR NZCM 122355Z 14015G27KT 9999 VCBLSN FEW020 SCT035 OVC080 M04/M10 A2960 RMK PK WND 13029/36 WSHFT 2239 SLP026 VCBLSN SE-SW=EQDD01      0ADE735
0280896640876012017011300004-77850+166667FM-12+002499999V0201401N00771010501CN011000199-00411-01011100261ADDAA124000021AL19900031GA1021+006001061GA2041+010501061GE19MSL   +99999+99999GF108991021999006001999999KA1120M-00351KA2120N-00581MA1999999099851MD1610061+9999REMSYN11289664 12561 81415 11041 21101 39985 40026 56006 69904 8457/ 333 11035 21058 56329 59003 82620 84635 90983 93197=
0210896640876012017011302554-77850+166667FM-15+002499999V0201701N01441001521WN000600199-00501-00501100211ADDGA1091+001521999GE19MSL   +99999+99999GF109991091999001521999999MA1100202099795MW1381MW2711OC101751REMMET099METAR NZCM 130255Z 17028G34KT 0600 -SN BLSN VV005 M05/M05 A2959 RMK PK WND 17041/15 SNB0019 SLP021=
0231896640876012017011305554-77850+166667FM-15+002499999V0201601N011310091419N002000199-00401-00501100271ADDGA1021+002441999GA2081+009141999GE19MSL   +99999+99999GF199999021999002441999999MA1100242099855MW1381MW2711OD149901801170REMMET098METAR NZCM 130555Z 16022KT 2000 -SN BLSN FEW008 OVC030 M04/M05 A2960 RMK PK WND 17035/0348 SLP027=
0276896640876012017011306004-77850+166667FM-12+002499999V0201601N011810090019N002000199-00451-00531100271ADDAA106000331AL19900131AY171021AY231021GA1021+002401071GA2071+009001061GE19MSL   +99999+99999GF108991021999002401999999MA1999999099851MD1110051+9999MW1711REMSYN11289664 11320 81623 11045 21053 39985 40027 51005 69931 77173 885// 333 01741 56399 82708 87630 90972 93195 96038=
0226896640876012017011308554-77850+166667FM-15+002499999V0201701N010310091419N009999199-00401-00701100341ADDGA1071+009141999GA2081+015241999GE19MSL   +99999+99999GF199999071999009141999999MA1100302099925MW1361MW2711OC101291REMMET099METAR NZCM 130855Z 17020G25KT 9999 -SN DRSN BKN030 OVC050 M04/M07 A2962 RMK PK WND 16032/13 SLP034=
0209896640876012017011309004-77850+166667FM-12+002499999V0201701N010310090019N011000199-00441-00671100341ADDAY171021AY231021GA1071+009001061GE19MSL   +99999+99999GF108991071999009001999999MA1999999099921MD1210071+9999MW1711REMSYN08289664 41561 81720 11044 21067 39992 40034 52007 77173 885// 333 56399 87630 96036=
0266896640876012017011311554-77850+166667FM-15+002499999V0201601N007710128019N009999199-00401-00701100421ADDGA1021+009141999GA2071+012801999GA3081+021341999GE19MSL   +99999+99999GF199999021999009141999999MA1100372100005MW1711OC101081OD149901331160REMMET115METAR NZCM 131155Z 16015G21KT 9999 -SN FEW030 BKN042 OVC070 M04/M07 A2964 RMK PK WND 16026/0905 SLP042 BLSN DSNT S=
0308896640876012017011312004-77850+166667FM-12+002499999V0201601N00771012601CN011000199-00371-00681100421ADDAA112000331AL19900131AY171021AY231021GA1011+009001061GA2071+012601061GE19MSL   +99999+99999GF108991011999009001999999KA1240M-00341KA2240N-00501MA1999999100001MD1210081+9999MW1711REMSYN11889664 11561 81615 11037 21068 30000 40042 52008 69932 77173 8757/ 333 11034 21050 56339 58009 81630 87642 90973 93195=
0176896640876012017011314554-77850+166667FM-15+002499999V0201101N005110128019N009999199-00301-00701100511ADDGA1081+012801999GE19MSL   +99999+99999GF199999081999012801999999MA1100472100095MW1711OC101031REMMET071METAR NZCM 131455Z 11010G20KT 9999 -SN OVC042 M03/M07 A2967 RMK SLP051=
0203896640876012017011315004-77850+166667FM-12+002499999V0201101N005110126019N011000199-00351-00711100511ADDAY171021AY271021GA1081+012601061GE19MSL   +99999+99999GF108991081999012601999999MA1999999100091MD1210091+9999MW1711REMSYN07689664 41661 81110 11035 21071 30009 40051 52009 77177 885// 333 56399 88642=
0146896640876012017011317554-77850+166667FM-15+002499999V0201401N010319999999N009999199-00405-00605100521ADDMW1361MW2711OC101391REMMET095METAR NZCM 131755Z 14020G27KT 9999 -SN DRSN VCBLSN OVC042 M04/M06 A2967 RMK SLP052 VCBLSN S-SW=EQDD01      0ADE539
0248896640876012017011318004-77850+166667FM-12+002499999V0201401N010310126019N011000199-00401-00641100521ADDAA118000531AL19900131AY171021AY271021GA1081+012601061GE19MSL   +99999+99999GF108991081999012601999999MA1999999100101MD1990011+9999MW1711REMSYN10089664 11661 81420 11040 21064 30010 40052 50001 69953 77177 885// 333 56399 88642 90983 93101 96036=
0220896640876012017011320554-77850+166667FM-15+002499999V0201101N005710137219N009999199-00201-00801100611ADDGA1021+009141999GA2081+013721999GE19MSL   +99999+99999GF199999021999009141999999MA1100582100195REMMET113METAR NZCM 132055Z 11011KT 9999 FEW030 OVC045 M02/M08 A2970 RMK PK WND 15027/1804 SNE1850B05E25 SLP061 SN DSNT S=
0231896640876012017011321004-77850+166667FM-12+002499999V0201101N005710135019N011000199-00191-00831100611ADDAY171021AY221021GA1011+009001061GA2081+013501061GE19MSL   +99999+99999GF108991011999009001999999MA1999999100191MD1210091+9999MW1221REMSYN08889664 41561 81111 11019 21083 30019 40061 52009 72272 885// 333 56399 81630 88645 96015=
0236896640876012017011323554-77850+166667FM-15+002499999V0201301N007210137219N009999199-00101-00801100721ADDGA1021+009141999GA2071+013721999GA3081+018291999GE19MSL   +99999+99999GF199999021999009141999999MA1100682100315OC101241REMMET105METAR NZCM 132355Z 13014G24KT 9999 FEW030 BKN045 OVC060 M01/M08 A2973 RMK SNB2245E24 SLP072 SN DSNT W-NW=
0314896640876012017011400004-77850+166667FM-12+002499999V0201301N00721013501CN011000199-00151-00831100721ADDAA124000531AL19900131AY171021AY221021GA1011+009001061GA2061+013501061GE19MSL   +99999+99999GF108991011999009001999999KA1120M-00141KA2120N-00411MA1999999100301MD1210111+9999MW1221REMSYN12489664 11561 81314 11015 21083 30030 40072 52011 69954 72272 885// 333 11014 21041 56399 58045 81630 86645 90924 93101 96015=
0227896640876012017011402554-77850+166667FM-15+002499999V0200901N005710228619N009999199-00101-00901100741ADDGA1021+013721999GA2081+022861999GE19MSL   +99999+99999GF199999021999013721999999MA1100712100335OD149901331150REMMET106METAR NZCM 140255Z COR 09011KT 9999 FEW045 OVC075 M01/M09 A2974 RMK PK WND 15026/0046 SLP074 SN DSNT W-NW=
0219896640876012017011403004-77850+166667FM-12+002499999V0200901N005710210019N011000199-00111-00931100741ADDAY121021AY221021GA1021+013501061GA2071+021001031GE19MSL   +99999+99999GF108991021999013501999999MA1999999100321MD1110021+9999MW1151REMSYN07689664 41661 80911 11011 21093 30032 40074 51002 71522 8257/ 333 82645 87357=
0250896640876012017011405554-77850+166667FM-15+002499999V0201301N007710198119N009999199-00101-01001100761ADDGA1021+009141999GA2021+013721999GA3081+019811999GE19MSL   +99999+99999GF199999021999009141999999MA1100712100355OC101181REMMET119METAR NZCM 140555Z 13015G23KT 9999 FEW030 FEW045 OVC065 M01/M10 A2974 RMK PK WND 15026/49 SLP076 SN DSNT W BLSN DSNT S=
0225896640876012017011406004-77850+166667FM-12+002499999V0201301N00771018001CN011000199-00141-00991100761ADDAY121021AY221021GA1011+009001061GA2061+018001061GE19MSL   +99999+99999GF108991011999009001999999MA1999999100341MD1310021+9999MW1151REMSYN08289664 31561 81315 11014 21099 30034 40076 53002 71522 885// 333 56399 81630 86656=
0233896640876012017011408554-77850+166667FM-15+002499999V0201101N006210143319N009999199-00301-00901100761ADDGA1071+014331999GA2081+018291999GE19MSL   +99999+99999GF199999071999014331999999MA1100712100345OC101081OD149901331160REMMET104METAR NZCM 140855Z 11012G21KT 9999 BKN047 OVC060 M03/M09 A2974 RMK PK WND 16026/0634 SLP076 BLSN DSNT S=
0197896640876012017011409004-77850+166667FM-12+002499999V0201101N006210180019N011000199-00311-00881100761ADDGA1041+014101061GA2081+018001061GE19MSL   +99999+99999GF108991041999014101999999MA1999999100341MD1410001+9999REMSYN07689664 42661 81112 11031 21088 30034 40076 54000 885// 333 56399 84647 88656=
0198896640876012017011411554-77850+166667FM-15+002499999V0201201N004110143319N009999199-00301-00701100811ADDGA1071+014331999GA2081+018291999GE19MSL   +99999+99999GF199999071999014331999999MA1100782100395REMMET091METAR NZCM 141155Z 12008KT 9999 BKN047 OVC060 M03/M07 A2976 RMK SNB15E44 SLP081 SN DSNT SW=
0327896640876012017011412004-77850+166667FM-12+002499999V0201201N004110117019N011000199-00291-00701100811ADDAA106000091AL19900031AY121021AY221021GA1051+011701061GA2081+018001061GE19MSL   +99999+99999GF108991051999011701999999KA1240M-00051KA2240N-00411MA1999999100391MD1310051+9999MW1151REMSYN11889664 11661 81208 11029 21070 30039 40081 53005 69901 71522 885// 333 11005 21041 56399 58039 85639 88656 90910 93197=EQDQ01  00002PRCP06
0239896640876012017011414554-77850+166667FM-15+002499999V0200901N005710121919N009999199-00301-00501100761ADDGA1071+012191999GA2081+018291999GE19MSL   +99999+99999GF199999071999012191999999MA1100712100345MW1711OC100771OD149901541150REMMET104METAR NZCM 141455Z 09011G15KT 9999 -SN BKN040 OVC060 M03/M05 A2974 RMK PK WND 15030/1220 SNB1315 SLP076=
0225896640876012017011415004-77850+166667FM-12+002499999V0200901N005710120019N011000199-00261-00541100761ADDAY171021AY221021GA1051+012001061GA2081+018001051GE19MSL   +99999+99999GF108991051999012001999999MA1999999100341MD1810051+9999MW1711REMSYN08289664 41661 80911 11026 21054 30034 40076 58005 77172 885// 333 56399 85640 88556=
0235896640876012017011417554-77850+166667FM-15+002499999V0200501N006710137219N009999199-00201-00401100661ADDGA1021+002131999GA2071+013721999GA3081+018291999GE19MSL   +99999+99999GF199999021999002131999999MA1100612100245MW1711OC100931REMMET098METAR NZCM 141755Z 05013G18KT 9999 -SN FEW007 BKN045 OVC060 M02/M04 A2971 RMK SNE1540B1551 SLP066=
0220896640876012017011420554-77850+166667FM-15+002499999V0200601N005110457219N009999199-00301-00501100621ADDGA1021+002441999GA2021+018291999GA3071+045721999GE19MSL   +99999+99999GF199999021999002441999999MA1100582100205OC100821REMMET089METAR NZCM 142055Z 06010G16KT 9999 FEW008 FEW060 BKN150 M03/M05 A2970 RMK SNE1905 SLP062=
0225896640876012017011421004-77850+166667FM-12+002499999V0200601N00511045001CN011000199-00271-00501100621ADDAY171021AY221021GA1011+002401071GA2061+045001021GE19MSL   +99999+99999GF107991011999002401999999MA1999999100201MD1710041+9999MW1011REMSYN08289664 42361 70610 11027 21050 30020 40062 57004 70172 82506 333 56303 81708 86265=
0201896640876012017011423554-77850+166667FM-15+002499999V0200801N00621045721CN009999199-00201-00501100501ADDGA1021+002441999GA2021+006101999GA3041+045721999GE19MSL   +99999+99999GF199999021999002441999999MA1100472100085REMMET078METAR NZCM 142355Z 08012KT 9999 FEW008 FEW020 SCT150 M02/M05 A2967 RMK SLP050=
0308896640876012017011500004-77850+166667FM-12+002499999V0200801N006219999999N011000199-00221-00491100501ADDAA118000021AL19900031AY171021AY211021GA1021+002401071GA2031+045001001GE19MSL   +99999+99999GF104991021999002401999999KA1120M-00191KA2120N-00321MA1999999100081MD1710121+9999MW1011REMSYN11889664 11361 40812 11022 21049 30008 40050 57012 69903 70171 82502 333 11019 21032 56303 59022 82708 83065 90945 93197=
0201896640876012017011502554-77850+166667FM-15+002499999V0200701N005110457219N009999199-00201-00501100361ADDGA1021+002441999GA2021+006101999GA3071+045721999GE19MSL   +99999+99999GF199999021999002441999999MA1100342099955REMMET078METAR NZCM 150255Z 07010KT 9999 FEW008 FEW020 BKN150 M02/M05 A2963 RMK SLP036=
0197896640876012017011503004-77850+166667FM-12+002499999V0200701N00511045001CN011000199-00161-00461100361ADDGA1021+002401071GA2041+045001001GE19MSL   +99999+99999GF105991021999002401999999MA1999999099941MD1710141+9999REMSYN07689664 42361 50710 11016 21046 39994 40036 57014 82501 333 56303 82708 84065=
0256896640876012017011505554-77850+166667FM-15+002499999V0200701N00571002441CN009999199-00301-00501100231ADDGA1021+000611999GA2041+002441999GA3071+045721999GE19MSL   +99999+99999GF199999021999000611999999MA1100202099815MW1111REMMET127METAR NZCM 150555Z 07011KT 9999 PRFG FEW002 SCT008 BKN150 M03/M05 A2959 RMK VIS N-E 1000 FEW002 V SCT SLP023 FG DSNT GRID SE-S=
0244896640876012017011506004-77850+166667FM-12+002499999V0201001N01491999999CN011000199+99999-00461100231ADDAY121021AY221021GA1022+000601071GA2042+045001001GE19MSL   +99999+99999GF101992022999000601999999MA1999999099811MD1710131+9999MW1411REMSYN08289664 31161 11029 21046 39981 40023 57013 74122 83602 333 56203 82702 84065 96040=EQDQ01 045003SCOCIG
0214896640876012017011508554-77850+166667FM-15+002499999V0209999V00211002741CN009999199-00101-00301100181ADDGA1021+000611999GA2041+002741999GA3071+004571999GE19MSL   +99999+99999GF199999021999000611999999MA1100142099775REMMET091METAR NZCM 150855Z VRB04KT 9999 FEW002 SCT009 BKN015 M01/M03 A2957 RMK SLP018 FG DSNT SE-S=
0247896640876012017011509004-77850+166667FM-12+002499999V0209999V002110045019N011000199-00071-00301100181ADDAY121021AY221021GA1011+000601071GA2041+002701071GA3071+004501061GE19MSL   +99999+99999GF107991011999000601999999MA1999999099761MD1710051+9999MW1401REMSYN08889664 41161 79904 11007 21030 39976 40018 57005 74022 87500 333 56700 81702 84709 87615=
0191896640876012017011511554-77850+166667FM-15+002499999V0203301N005710061019N009999199-00101-00301100041ADDGA1041+002741999GA2071+006101999GE19MSL   +99999+99999GF199999041999002741999999MA1100002099635REMMET084METAR NZCM 151155Z 33011KT 9999 SCT009 BKN020 M01/M03 A2953 RMK SLP004 FG DSNT SE-S=
0178896640876012017011514554-77850+166667FM-15+002499999V0203301N004610033519N009999199-00201-00401099511ADDGA1071+003351999GA2071+012191999GE19MSL   +99999+99999GF199999071999003351999999MA1099901099105REMMET071METAR NZCM 151455Z 33009KT 9999 BKN011 BKN040 M02/M04 A2950 RMK SLP951=
0175896640876012017011515004-77850+166667FM-12+002499999V0203301N004610033019N011000199-00191-00411099932ADDGA1071+003301061GE19MSL   +99999+99999GF107991071999003301999999MA1099895099512MD1710111+9999REMSYN07089664 42461 73309 11019 21041 39951 49993 57011 87500 333 56700 87611=
0178896640876012017011517554-77850+166667FM-15+002499999V0203301N004610033519N009999199-00201-00401099861ADDGA1041+002741999GA2071+003351999GE19MSL   +99999+99999GF199999041999002741999999MA1099831099455REMMET071METAR NZCM 151755Z 33009KT 9999 SCT009 BKN011 M02/M04 A2948 RMK SLP986=
0178896640876012017011520554-77850+166667FM-15+002499999V0209999V002110033519N009999199-00101-00401099851ADDGA1041+002741999GA2071+003351999GE19MSL   +99999+99999GF199999041999002741999999MA1099831099445REMMET071METAR NZCM 152055Z VRB04KT 9999 SCT009 BKN011 M01/M04 A2948 RMK SLP985=
0197896640876012017011521004-77850+166667FM-12+002499999V0209999V002110033019N011000199-00151-00401099851ADDGA1031+002701071GA2061+003301071GE19MSL   +99999+99999GF107991031999002701999999MA1099825099441MD1510001+9999REMSYN07689664 42361 79904 11015 21040 39944 49985 55000 87600 333 56700 83709 86711=
0178896640876012017011523554-77850+166667FM-15+002499999V0209999C000010039619N009999199+00001-00401099841ADDGA1021+002741999GA2071+003961999GE19MSL   +99999+99999GF199999021999002741999999MA1099801099435REMMET071METAR NZCM 152355Z 00000KT 9999 FEW009 BKN013 M00/M04 A2947 RMK SLP984=
0241896640876012017011600004-77850+166667FM-12+002499999V0209999C00001003901CN011000199-00051-00431099841ADDGA1011+002701071GA2061+003901071GE19MSL   +99999+99999GF106991011999002701999999KA1120M+00001KA2120N-00251MA1099805099421MD1610021+9999REMSYN09489664 32361 60000 11005 21043 39942 49984 56002 86600 333 10000 21025 56300 59066 81709 86713=
0200896640876012017011602554-77850+166667FM-15+002499999V0202001N001010054919N009999199+00101-00401099871ADDGA1021+000611999GA2021+001831999GA3071+005491999GE19MSL   +99999+99999GF199999021999000611999999MA1099831099465REMMET077METAR NZCM 160255Z 20002KT 9999 FEW002 FEW006 BKN018 01/M04 A2948 RMK SLP987=
0197896640876012017011603004-77850+166667FM-12+002499999V0202001N00101005401CN011000199+00051-00411099871ADDGA1011+000601071GA2071+005401071GE19MSL   +99999+99999GF107991011999000601999999MA1099845099461MD1990021+9999REMSYN07689664 42161 72002 10005 21041 39946 49987 50002 87600 333 56300 81702 87718=
0201896640876012017011605554-77850+166667FM-15+002499999V0202601N002110054919N009999199+00001-00501099891ADDGA1021+000611999GA2071+005491999GA3071+006101999GE19MSL   +99999+99999GF199999021999000611999999MA1099861099485REMMET078METAR NZCM 160555Z 26004KT 9999 FEW002 BKN018 BKN020 M00/M05 A2949 RMK SLP989=
0201896640876012017011608554-77850+166667FM-15+002499999V0209999V00211054861CN009999199-00101-00501099941ADDGA1021+005491999GA2021+012191999GA3041+054861999GE19MSL   +99999+99999GF199999021999005491999999MA1099901099535REMMET078METAR NZCM 160855Z VRB04KT 9999 FEW018 FEW040 SCT180 M01/M05 A2950 RMK SLP994=
0178896640876012017011611554-77850+166667FM-15+002499999V0203001N00151054861CN009999199-00101-00601100021ADDGA1041+006101999GA2041+054861999GE19MSL   +99999+99999GF199999041999006101999999MA1100002099615REMMET071METAR NZCM 161155Z 30003KT 9999 SCT020 SCT180 M01/M06 A2953 RMK SLP002=
0241896640876012017011612004-77850+166667FM-12+002499999V0203001N001519999999N011000199-00091-00631100021ADDGA1011+006001061GA2031+054001001GE19MSL   +99999+99999GF103991011999006001999999KA1240M+00101KA2240N-00251MA1999999099601MD1210071+9999REMSYN09489664 32561 33003 11009 21063 39960 40002 52007 81502 333 10010 21025 56303 59002 81620 83068=
0216896640876012017011614554-77850+166667FM-15+002499999V0203501N00151054861CN009999199-00201-00401100031ADDGA1021+006101999GA2021+030481999GA3041+054861999GE19MSL   +99999+99999GF199999021999006101999999MA1100002099625REMMET093METAR NZCM 161455Z 35003KT 9999 FEW020 FEW100 SCT180 M02/M04 A2953 RMK SLP003 FATA MORGANA S=
0219896640876012017011615004-77850+166667FM-12+002499999V0203501N001519999999N011000199-00161-00451100031ADDGA1011+006001061GA2031+054001001GA3999+999999001GE19MSL   +99999+99999GF103991011999006001999999MA1999999099611MD1110011+9999REMSYN08289664 42561 33503 11016 21045 39961 40003 51001 81572 333 56003 81620 83068 99114=
0178896640876012017011617554-77850+166667FM-15+002499999V0209999C000010518219N009999199-00201-00501100101ADDGA1021+003961999GA2071+051821999GE19MSL   +99999+99999GF199999021999003961999999MA1100072099695REMMET071METAR NZCM 161755Z 00000KT 9999 FEW013 BKN170 M02/M05 A2955 RMK SLP010=
0197896640876012017011618004-77850+166667FM-12+002499999V0209999C00001021001CN011000199-00191-00481100101ADDGA1011+003901061GA2061+021001021GE19MSL   +99999+99999GF106991011999003901999999MA1999999099681MD1310071+9999REMSYN07689664 32461 60000 11019 21048 39968 40010 53007 81506 333 56303 81613 86257=
0201896640876012017011620554-77850+166667FM-15+002499999V0209999C000010640119N009999199-00101-00501100201ADDGA1021+006101999GA2021+012191999GA3081+064011999GE19MSL   +99999+99999GF199999021999006101999999MA1100172099795REMMET078METAR NZCM 162055Z 00000KT 9999 FEW020 FEW040 OVC210 M01/M05 A2958 RMK SLP020=
0197896640876012017011621004-77850+166667FM-12+002499999V0209999C000010630019N011000199-00141-00491100201ADDGA1011+006001061GA2081+063001021GE19MSL   +99999+99999GF108991011999006001999999MA1999999099781MD1110101+9999REMSYN07689664 42561 80000 11014 21049 39978 40020 51010 81507 333 56007 81620 88271=
0219896640876012017011623554-77850+166667FM-15+002499999V0209999C000010426719N009999199+00001-00601100261ADDGA1021+006101999GA2021+012191999GA3081+042671999GE19MSL   +99999+99999GF199999021999006101999999MA1100242099855REMMET096METAR NZCM 162355Z 00000KT 9999 FEW020 FEW040 OVC140 M00/M06 A2960 RMK SLP026 FATA MORGANA S-SW=
0253896640876012017011700004-77850+166667FM-12+002499999V0209999C000010420019N011000199-00021-00561100261ADDGA1011+006001061GA2081+042001021GE19MSL   +99999+99999GF108991011999006001999999KA1120M+00031KA2120N-00241MA1999999099851MD1310071+9999REMSYN10689664 32561 80000 11002 21056 39985 40026 53007 81507 333 10003 21024 56007 58043 81620 88264 99114 99115=
0200896640876012017011702554-77850+166667FM-15+002499999V0209999V00311042671CN009999199+00001-01201100271ADDGA1021+003051999GA2021+006101999GA3041+042671999GE19MSL   +99999+99999GF199999021999003051999999MA1100242099865REMMET077METAR NZCM 170255Z VRB06KT 9999 FEW010 FEW020 SCT140 00/M12 A2960 RMK SLP027=
0197896640876012017011703004-77850+166667FM-12+002499999V0209999V003119999999N011000199+00001-01171100271ADDGA1011+003001081GA2041+042001021GE19MSL   +99999+99999GF104991011999003001999999MA1999999099851MD1990001+9999REMSYN07689664 42461 49906 10000 21117 39985 40027 50000 81208 333 56007 81810 84264=
0201896640876012017011705554-77850+166667FM-15+002499999V0200601N00461048771CN009999199-00201-01301100341ADDGA1021+003051999GA2021+012191999GA3041+048771999GE19MSL   +99999+99999GF199999021999003051999999MA1100302099935REMMET078METAR NZCM 170555Z 06009KT 9999 FEW010 FEW040 SCT160 M02/M13 A2962 RMK SLP034=
0197896640876012017011706004-77850+166667FM-12+002499999V0200601N004619999999N011000199-00171-01261100341ADDGA1011+003001081GA2041+048001001GE19MSL   +99999+99999GF104991011999003001999999MA1999999099921MD1110071+9999REMSYN07689664 32461 40609 11017 21126 39992 40034 51007 81201 333 56007 81810 84066=
0201896640876012017011708554-77850+166667FM-15+002499999V0200501N003110304819N009999199-00301-01401100441ADDGA1021+015241999GA2071+030481999GA3071+057911999GE19MSL   +99999+99999GF199999021999015241999999MA1100412100025REMMET078METAR NZCM 170855Z 05006KT 9999 FEW050 BKN100 BKN190 M03/M14 A2965 RMK SLP044=
0213896640876012017011709004-77850+166667FM-12+002499999V0200501N00311030001CN011000199-00321-01411100441ADDGA1021+015001061GA2051+030001031GA3999+999999001GE19MSL   +99999+99999GF106991021999015001999999MA1999999100021MD1210101+9999REMSYN07689664 42761 60506 11032 21141 30002 40044 52010 82574 333 56077 82650 85360=
0216896640876012017011711554-77850+166667FM-15+002499999V0200701N003110335319N009999199-00301-01501100471ADDGA1021+006101999GA2071+033531999GA3071+057911999GE19MSL   +99999+99999GF199999021999006101999999MA1100442100055REMMET093METAR NZCM 171155Z COR 07006KT 9999 FEW020 BKN110 BKN190 M03/M15 A2966 RMK SLP047 FG DSNT SW=
0285896640876012017011712004-77850+166667FM-12+002499999V0200701N00311033001CN011000199-00301-01471100471ADDAY121021AY221021GA1021+006001061GA2061+033001031GA3999+999999021GE19MSL   +99999+99999GF107991021999006001999999KA1240M+00091KA2240N-00381MA1999999100041MD1210021+9999MW1401REMSYN10089664 31561 70706 11030 21147 30004 40047 52002 74022 82578 333 10009 21038 56077 58044 82620 86361=
0178896640876012017011714554-77850+166667FM-15+002499999V0201101N002610548619N009999199-00301-01501100441ADDGA1021+015241999GA2071+054861999GE19MSL   +99999+99999GF199999021999015241999999MA1100412100025REMMET071METAR NZCM 171455Z 11005KT 9999 FEW050 BKN180 M03/M15 A2965 RMK SLP044=
0197896640876012017011715004-77850+166667FM-12+002499999V0201101N00261054001CN011000199-00301-01471100441ADDGA1011+015001061GA2071+054001021GE19MSL   +99999+99999GF107991011999015001999999MA1999999100021MD1610021+9999REMSYN07689664 42761 71105 11030 21147 30002 40044 56002 81508 333 56808 81650 87268=
0178896640876012017011717554-77850+166667FM-15+002499999V0201001N005110243819N009999199-00401-01501100441ADDGA1021+012191999GA2071+024381999GE19MSL   +99999+99999GF199999021999012191999999MA1100412100025REMMET071METAR NZCM 171755Z 10010KT 9999 FEW040 BKN080 M04/M15 A2965 RMK SLP044=
0197896640876012017011718004-77850+166667FM-12+002499999V0201001N00511024001CN011000199-00421-01521100441ADDGA1011+012001061GA2071+024001031GE19MSL   +99999+99999GF107991011999012001999999MA1999999100021MD1410001+9999REMSYN07689664 32661 71010 11042 21152 30002 40044 54000 81570 333 56880 81640 87358=
0200896640876012017011720554-77850+166667FM-15+002499999V0200701N005110228619N009999199-00501-01201100471ADDGA1021+012191999GA2071+022861999GE19MSL   +99999+99999GF199999021999012191999999MA1100442100055OC100881REMMET085METAR NZCM 172055Z 07010G17KT 9999 FEW040 BKN075 M05/M12 A2966 RMK SLP047 SN DSNT SW=
0225896640876012017011721004-77850+166667FM-12+002499999V0200701N00511021001CN011000199-00491-01241100471ADDAY121021AY221021GA1011+012001061GA2061+021001031GE19MSL   +99999+99999GF107991011999012001999999MA1999999100051MD1310031+9999MW1151REMSYN08289664 41661 70710 11049 21124 30005 40047 53003 71522 81570 333 56880 81640 86357=
0178896640876012017011723554-77850+166667FM-15+002499999V0200601N004610243819N009999199-00401-01201100461ADDGA1021+015241999GA2071+024381999GE19MSL   +99999+99999GF199999021999015241999999MA1100442100045REMMET071METAR NZCM 172355Z 06009KT 9999 FEW050 BKN080 M04/M12 A2966 RMK SLP046=
0241896640876012017011800004-77850+166667FM-12+002499999V0200601N00461024001CN011000199-00441-01211100461ADDGA1011+015001061GA2071+024001031GE19MSL   +99999+99999GF107991011999015001999999KA1120M-00231KA2120N-00591MA1999999100041MD1810011+9999REMSYN09489664 32761 70609 11044 21121 30004 40046 58001 81570 333 11023 21059 56880 58019 81650 87358=
0209896640876012017011802554-77850+166667FM-15+002499999V0200901V004610243819N009999199-00401-01301100371ADDGA1021+015241999GA2071+024381999GA3071+030481999GE19MSL   +99999+99999GF199999021999015241999999MA1100342099955REMMET086METAR NZCM 180255Z 09009KT 040V140 9999 FEW050 BKN080 BKN100 M04/M13 A2963 RMK SLP037=
0197896640876012017011803004-77850+166667FM-12+002499999V0200901N00461024001CN011000199-00371-01281100371ADDGA1011+015001061GA2061+024001031GE19MSL   +99999+99999GF107991011999015001999999MA1999999099961MD1610081+9999REMSYN07689664 42761 70909 11037 21128 39996 40037 56008 81570 333 56880 81650 86358=
0201896640876012017011805554-77850+166667FM-15+002499999V0200601N00671024381CN009999199-00501-01401100331ADDGA1021+015241999GA2041+024381999GA3041+039621999GE19MSL   +99999+99999GF199999021999015241999999MA1100302099915REMMET078METAR NZCM 180555Z 06013KT 9999 FEW050 SCT080 SCT130 M05/M14 A2962 RMK SLP033=
0197896640876012017011806004-77850+166667FM-12+002499999V0200601N006719999999N011000199-00511-01391100331ADDGA1011+015001061GA2031+024001031GE19MSL   +99999+99999GF103991011999015001999999MA1999999099911MD1710051+9999REMSYN07689664 32761 30613 11051 21139 39991 40033 57005 81570 333 56850 81650 83358=
0201896640876012017011811554-77850+166667FM-15+002499999V0200601N00461045721CN009999199-00301-01601100291ADDGA1021+006101999GA2021+024381999GA3021+045721999GE19MSL   +99999+99999GF199999021999006101999999MA1100272099875REMMET078METAR NZCM 181155Z 06009KT 9999 FEW020 FEW080 FEW150 M03/M16 A2961 RMK SLP029=
0251896640876012017011812004-77850+166667FM-12+002499999V0200601N004619999999N011000199-00391-01601100291ADDGA1011+006001061GA2999+999999031GA3999+999999001GE19MSL   +99999+99999GF102991011999006001999999KA1240M-00361KA2240N-00511MA1999999099871MD1710031+9999REMSYN08889664 32561 20609 11039 21160 39987 40029 57003 81571 333 11036 21051 56855 59017 81620=
0225896640876012017011814554-77850+166667FM-15+002499999V0202901N00151045721CN009999199-00701-01401100231ADDGA1021+012191999GA2021+024381999GA3041+045721999GE19MSL   +99999+99999GF199999021999012191999999MA1100202099815REMMET102METAR NZCM 181455Z 29003KT 9999 FEW040 FEW080 SCT150 M07/M14 A2959 RMK SLP023 FATA MORGANA S-SW AND W=
0231896640876012017011815004-77850+166667FM-12+002499999V0202901N001519999999N011000199-00661-01411100231ADDGA1011+012001061GA2031+045001001GA3999+999999001GE19MSL   +99999+99999GF103991011999012001999999MA1999999099821MD1710051+9999REMSYN09489664 42661 32903 11066 21141 39982 40023 57005 81571 333 56855 81640 83065 99114 99115 99116=
0194896640876012017011817554-77850+166667FM-15+002499999V0209999C000019999999N009999199-00101-01201999999ADDGA1021+021341999GA2021+045721999GE19MSL   +99999+99999GF199999021999021341999999MA1100172999999REMMET087METAR NZCM 181755Z 00000KT 9999 FEW070 FEW150 M01/M12 A2958 RMK SLPNO FATA MORGANA S-W=
0203896640876012017011818004-77850+166667FM-12+002499999V0209999C000019999999N011000199-00071-01181100205ADDGA1011+021001031GA2999+999999001GE19MSL   +99999+99999GF101991011999021001999999MA1999999099791MD1710031+9999REMSYN08289664 32861 10000 11007 21118 39979 57003 81071 333 56005 81357 99114 99115 99116=
0220896640876012017011820554-77850+166667FM-15+002499999V0209999C00001045721CN009999199-00101-00901999999ADDGA1021+018291999GA2021+027431999GA3021+045721999GE19MSL   +99999+99999GF199999021999018291999999MA1100172999999REMMET097METAR NZCM 182055Z 00000KT 9999 FEW060 FEW090 FEW150 M01/M09 A2958 RMK SLPNO FATA MORGANA SE-S-W=
0225896640876012017011821004-77850+166667FM-12+002499999V0209999C000019999999N011000199-00121-00901100205ADDGA1011+018001061GA2999+999999031GA3999+999999001GE19MSL   +99999+99999GF101991011999018001999999MA1999999099791MD1410001+9999REMSYN08889664 42761 10000 11012 21090 39979 54000 81571 333 56805 81656 99113 99114 99115 99116=
0195896640876012017011823554-77850+166667FM-15+002499999V0200601N00411027431CN009999199+00001-01401999999ADDGA1021+018291999GA2041+027431999GE19MSL   +99999+99999GF199999021999018291999999MA1100142999999REMMET088METAR NZCM 182355Z 06008KT 9999 FEW060 SCT090 00/M14 A2957 RMK SLPNO FATA MORGANA SE-SW=
0215896640876012017011900004-77850+166667FM-12+002499999V0200601N004119999999N011000199-00021-01421100185ADDGA1011+018001061GA2041+027001031GE19MSL   +99999+99999GF104991011999018001999999MA1999999099771MD1710021+9999REMSYN09489664 32761 40608 11002 21142 39977 57002 81530 333 56020 59027 81656 84359 99113 99114 99115=
0200896640876012017011902554-77850+166667FM-15+002499999V0200601N005710274319N009999199-00201-01301999999ADDGA1021+006101999GA2021+018291999GA3071+027431999GE19MSL   +99999+99999GF199999021999006101999999MA1100102999999REMMET077METAR NZCM 190255Z 06011KT 9999 FEW020 FEW060 BKN090 M02/M13 A2956 RMK SLPNO=
0191896640876012017011903004-77850+166667FM-12+002499999V0200601N00571027001CN011000199-00171-01331100135ADDGA1011+006001061GA2051+027001031GE19MSL   +99999+99999GF105991011999006001999999MA1999999099721MD1710051+9999REMSYN07089664 42561 50611 11017 21133 39972 57005 81570 333 56020 81620 85359=
0200896640876012017011905554-77850+166667FM-15+002499999V0200601N004610274319N009999199-00201-01301999999ADDGA1021+006101999GA2021+012191999GA3071+027431999GE19MSL   +99999+99999GF199999021999006101999999MA1100102999999REMMET077METAR NZCM 190555Z 06009KT 9999 FEW020 FEW040 BKN090 M02/M13 A2956 RMK SLPNO=
0191896640876012017011906004-77850+166667FM-12+002499999V0200601N00461027001CN011000199-00231-01351100135ADDGA1011+006001061GA2071+027001031GE19MSL   +99999+99999GF107991011999006001999999MA1999999099721MD1410001+9999REMSYN07089664 32561 70609 11023 21135 39972 54000 81570 333 56020 81620 87359=
0200896640876012017011908554-77850+166667FM-15+002499999V0200401N00511021341CN009999199-00301-01501999999ADDGA1021+012191999GA2041+021341999GA3071+027431999GE19MSL   +99999+99999GF199999021999012191999999MA1100172999999REMMET077METAR NZCM 190855Z 04010KT 9999 FEW040 SCT070 BKN090 M03/M15 A2958 RMK SLPNO=
0191896640876012017011909004-77850+166667FM-12+002499999V0200401N005119999999N011000199-00281-01471100205ADDGA1011+012001061GA2031+021001031GE19MSL   +99999+99999GF107991011999012001999999MA1999999099781MD1210061+9999REMSYN07089664 42661 70410 11028 21147 39978 52006 81570 333 56020 81640 83357=
0200896640876012017011911554-77850+166667FM-15+002499999V0209999C000010274319N009999199-00101-00901999999ADDGA1021+012191999GA2021+021341999GA3071+027431999GE19MSL   +99999+99999GF199999021999012191999999MA1100202999999REMMET077METAR NZCM 191155Z 00000KT 9999 FEW040 FEW070 BKN090 M01/M09 A2959 RMK SLPNO=
0197896640876012017011912004-77850+166667FM-12+002499999V0209999C00001027001CN011000199-00131-00891100235ADDGA1011+012001061GA2051+027001031GE19MSL   +99999+99999GF105991011999012001999999MA1999999099821MD1210041+9999REMSYN07689664 32661 50000 11013 21089 39982 52004 81570 333 56020 59005 81640 85359=
0154896640876012017011914554-77850+166667FM-15+002499999V0209999C000010274319N009999199-00401-00801999999ADDGA1071+027431999GE19MSL   +99999+99999GF199999071999027431999999MA1100242999999REMMET063METAR NZCM 191455Z 00000KT 9999 BKN090 M04/M08 A2960 RMK SLPNO=
0169896640876012017011915004-77850+166667FM-12+002499999V0209999C000010270019N011000199-00401-00841100275ADDGA1061+027001031GE19MSL   +99999+99999GF106991061999027001999999MA1999999099851MD1110031+9999REMSYN06489664 42961 60000 11040 21084 39985 51003 86030 333 56040 86359=
0154896640876012017011917554-77850+166667FM-15+002499999V0209999C000010274319N009999199-00401-01101999999ADDGA1071+027431999GE19MSL   +99999+99999GF199999071999027431999999MA1100302999999REMMET063METAR NZCM 191755Z 00000KT 9999 BKN090 M04/M11 A2962 RMK SLPNO=
0169896640876012017011918004-77850+166667FM-12+002499999V0209999C000010270019N011000199-00421-01071100335ADDGA1061+027001031GE19MSL   +99999+99999GF106991061999027001999999MA1999999099911MD1210061+9999REMSYN06489664 32961 60000 11042 21107 39991 52006 86030 333 56040 86359=
0177896640876012017011920554-77850+166667FM-15+002499999V0209999C000010289619N009999199-00301-00801999999ADDGA1021+012191999GA2071+028961999GE19MSL   +99999+99999GF199999021999012191999999MA1100372999999REMMET070METAR NZCM 192055Z 00000KT 9999 FEW040 BKN095 M03/M08 A2964 RMK SLPNO=
0191896640876012017011921004-77850+166667FM-12+002499999V0209999C00001027001CN011000199-00301-00791100395ADDGA1011+012001061GA2071+027001031GE19MSL   +99999+99999GF107991011999012001999999MA1999999099971MD1210061+9999REMSYN07089664 42661 70000 11030 21079 39997 52006 81570 333 56040 81640 87359=
0200896640876012017011923554-77850+166667FM-15+002499999V0202901N00261030481CN009999199-00301-00901999999ADDGA1021+010671999GA2021+021341999GA3041+030481999GE19MSL   +99999+99999GF199999021999010671999999MA1100442999999REMMET077METAR NZCM 192355Z 29005KT 9999 FEW035 FEW070 SCT100 M03/M09 A2966 RMK SLPNO=
0197896640876012017012000004-77850+166667FM-12+002499999V0202901N002619999999N011000199-00281-00911100475ADDGA1011+010501081GA2031+030001031GE19MSL   +99999+99999GF104991011999010501999999MA1999999100051MD1210081+9999REMSYN07689664 32661 42905 11028 21091 30005 52008 81270 333 56040 58028 81835 83360=
0201896640876012017012002554-77850+166667FM-15+002499999V0209999C00001030481CN009999199-00101-00701100501ADDGA1021+012191999GA2021+021341999GA3021+030481999GE19MSL   +99999+99999GF199999021999012191999999MA1100472100095REMMET078METAR NZCM 200255Z 00000KT 9999 FEW040 FEW070 FEW100 M01/M07 A2967 RMK SLP050=
0191896640876012017012003004-77850+166667FM-12+002499999V0209999C000019999999N011000199-00141-00741100501ADDGA1011+012001081GA2999+999999031GE19MSL   +99999+99999GF102991011999012001999999MA1999999100081MD1210031+9999REMSYN07089664 42661 20000 11014 21074 30008 40050 52003 81270 333 56040 81840=
0201896640876012017012005554-77850+166667FM-15+002499999V0209999C00001024381CN009999199-00101-00701100491ADDGA1021+009141999GA2021+015241999GA3021+024381999GE19MSL   +99999+99999GF199999021999009141999999MA1100442100085REMMET078METAR NZCM 200555Z 00000KT 9999 FEW030 FEW050 FEW080 M01/M07 A2966 RMK SLP049=
0191896640876012017012006004-77850+166667FM-12+002499999V0209999C000019999999N011000199-00131-00661100491ADDGA1011+009001081GA2999+999999031GE19MSL   +99999+99999GF101991011999009001999999MA1999999100071MD1610011+9999REMSYN07089664 32561 10000 11013 21066 30007 40049 56001 81170 333 56040 81830=
0201896640876012017012008554-77850+166667FM-15+002499999V0209999V002610274319N009999199-00301-00901100501ADDGA1021+007621999GA2071+027431999GA3071+045721999GE19MSL   +99999+99999GF199999021999007621999999MA1100472100085REMMET078METAR NZCM 200855Z VRB05KT 9999 FEW025 BKN090 BKN150 M03/M09 A2967 RMK SLP050=
0213896640876012017012009004-77850+166667FM-12+002499999V0209999V00261027001CN011000199-00281-00891100501ADDGA1011+007501061GA2051+027001031GA3999+999999001GE19MSL   +99999+99999GF106991011999007501999999MA1999999100081MD1110011+9999REMSYN07689664 42561 69905 11028 21089 30008 40050 51001 81471 333 56044 81625 85359=
0174896640876012017012011554-77850+166667FM-15+002499999V0203401N002610304819N009999199-00301-00701100491ADDGA1071+030481999GE19MSL   +99999+99999GF199999071999030481999999MA1100442100075MW1401REMMET077METAR NZCM 201155Z 34005KT 9999 VCFG BKN100 M03/M07 A2966 RMK SLP049 VCFG SE=
0247896640876012017012012004-77850+166667FM-12+002499999V0203401N002610300019N011000199-00301-00691100491ADDAY121021AY221021GA1061+030001031GE19MSL   +99999+99999GF106991061999030001999999KA1240M-00081KA2240N-00341MA1999999100071MD1610011+9999MW1401REMSYN09489664 31961 63405 11030 21069 30007 40049 56001 74022 86070 333 11008 21034 56040 58025 86360=
0178896640876012017012014554-77850+166667FM-15+002499999V0203301N003110335319N009999199-00401-00701100411ADDGA1021+021341999GA2071+033531999GE19MSL   +99999+99999GF199999021999021341999999MA1100372099995REMMET071METAR NZCM 201455Z 33006KT 9999 FEW070 BKN110 M04/M07 A2964 RMK SLP041=
0197896640876012017012015004-77850+166667FM-12+002499999V0203301N00311033001CN011000199-00361-00661100411ADDGA1021+021001031GA2061+033001031GE19MSL   +99999+99999GF107991021999021001999999MA1999999099991MD1710081+9999REMSYN07689664 42861 73306 11036 21066 39999 40041 57008 87070 333 56040 82357 86361=
0201896640876012017012017554-77850+166667FM-15+002499999V0209999C000010213419N009999199-00301-00701100341ADDGA1021+003051999GA2021+012191999GA3071+021341999GE19MSL   +99999+99999GF199999021999003051999999MA1100302099925REMMET078METAR NZCM 201755Z 00000KT 9999 FEW010 FEW040 BKN070 M03/M07 A2962 RMK SLP034=
0197896640876012017012018004-77850+166667FM-12+002499999V0209999C00001021001CN011000199-00351-00661100341ADDGA1011+003001061GA2061+021001031GE19MSL   +99999+99999GF107991011999003001999999MA1999999099921MD1610071+9999REMSYN07689664 32461 70000 11035 21066 39992 40034 56007 81570 333 56040 81610 86357=
0201896640876012017012020554-77850+166667FM-15+002499999V0209999V00311015241CN009999199-00301-00801100271ADDGA1021+003051999GA2041+015241999GA3071+021341999GE19MSL   +99999+99999GF199999021999003051999999MA1100242099855REMMET078METAR NZCM 202055Z VRB06KT 9999 FEW010 SCT050 BKN070 M03/M08 A2960 RMK SLP027=
0197896640876012017012021004-77850+166667FM-12+002499999V0209999V003119999999N011000199-00261-00771100271ADDGA1011+003001061GA2041+015001061GE19MSL   +99999+99999GF107991011999003001999999MA1999999099851MD1810071+9999REMSYN07689664 42461 79906 11026 21077 39985 40027 58007 84570 333 56440 81610 84650=
0201896640876012017012023554-77850+166667FM-15+002499999V0203001N002610182919N009999199-00101-01101100141ADDGA1021+003051999GA2021+012191999GA3081+018291999GE19MSL   +99999+99999GF199999021999003051999999MA1100102099735REMMET078METAR NZCM 202355Z 30005KT 9999 FEW010 FEW040 OVC060 M01/M11 A2956 RMK SLP014=
0241896640876012017012100004-77850+166667FM-12+002499999V0203001N00261018001CN011000199-00131-01071100141ADDGA1011+003001061GA2071+018001061GE19MSL   +99999+99999GF108991011999003001999999KA1120M-00101KA2120N-00371MA1999999099721MD1710131+9999REMSYN09489664 32461 83005 11013 21107 39972 40014 57013 885// 333 11010 21037 56499 59033 81610 87656=
0216896640876012017012102554-77850+166667FM-15+002499999V0209999C000010182919N009999199+00001-00901099951ADDGA1021+012191999GA2071+018291999GA3071+039621999GE19MSL   +99999+99999GF199999021999012191999999MA1099932099545REMMET093METAR NZCM 210255Z 00000KT 9999 FEW040 BKN060 BKN130 00/M09 A2951 RMK SLP995 FATA MORGANA NW=
0203896640876012017012103004-77850+166667FM-12+002499999V0209999C000019999999N011000199+00031-00941099951ADDGA1011+012001061GA2041+018001061GE19MSL   +99999+99999GF107991011999012001999999MA1999999099531MD1610191+9999REMSYN08289664 42661 70000 10003 21094 39953 49995 56019 85530 333 56440 81640 84656 99117=
0209896640876012017012105554-77850+166667FM-15+002499999V0200901V00571030481CN009999199-00201-01001099821ADDGA1021+012191999GA2041+030481999GA3071+045721999GE19MSL   +99999+99999GF199999021999012191999999MA1099801099415REMMET086METAR NZCM 210555Z 09011KT 050V120 9999 FEW040 SCT100 BKN150 M02/M10 A2947 RMK SLP982=
0208896640876012017012108554-77850+166667FM-15+002499999V0200901N00511021341CN009999199-00501-01201099711ADDGA1021+015241999GA2041+021341999GA3041+027431999GE19MSL   +99999+99999GF199999021999015241999999MA1099661099295REMMET085METAR NZCM 210855Z 09010KT 9999 FEW050 SCT070 SCT090 M05/M12 A2943 RMK ACSL S SLP971=
0197896640876012017012109004-77850+166667FM-12+002499999V0200901N005119999999N011000199-00531-01161099711ADDGA1011+015001061GA2031+021001031GE19MSL   +99999+99999GF104991011999015001999999MA1099675099291MD1710111+9999REMSYN07689664 42761 40910 11053 21116 39929 49971 57011 81540 333 56440 81650 83357=
0212896640876012017012111554-77850+166667FM-15+002499999V0200801N00571027431CN009999199-00701-01101099611ADDGA1021+001521999GA2021+015241999GA3021+027431999GE19MSL   +99999+99999GF199999021999001521999999MA1099561099195REMMET089METAR NZCM 211155Z 08011KT 9999 FEW005 FEW050 FEW090 M07/M11 A2940 RMK ACSL SW-NW SLP961=
0235896640876012017012112004-77850+166667FM-12+002499999V0200801N005719999999N011000199-00661-01141099611ADDGA1011+001501071GA2999+999999031GE19MSL   +99999+99999GF102991011999001501999999KA1240M+00031KA2240N-00741MA1099575099191MD1710101+9999REMSYN08889664 32261 20811 11066 21114 39919 49961 57010 81540 333 10003 21074 56400 59088 81705=
0189896640876012017012114554-77850+166667FM-15+002499999V0200701N005719999999N009999199-00601-01301099401ADDGA1021+000911999GA2021+027431999GE19MSL   +99999+99999GF199999021999000911999999MA1099361098985REMMET082METAR NZCM 211455Z 07011KT 9999 FEW003 FEW090 M06/M13 A2934 RMK ACSL SW-NW SLP940=
0191896640876012017012115004-77850+166667FM-12+002499999V0200701N005719999999N011000199-00651-01321099401ADDGA1011+000901071GA2999+999999031GE19MSL   +99999+99999GF102991011999000901999999MA1099375098991MD1710201+9999REMSYN07089664 42161 20711 11065 21132 39899 49940 57020 81640 333 56000 81703=
0209896640876012017012117554-77850+166667FM-15+002499999V0200601N006710365819N009999199-00701-01201099271ADDGA1021+000911999GA2071+036581999GA3071+045721999GE19MSL   +99999+99999GF199999021999000911999999MA1099221098855REMMET086METAR NZCM 211755Z 06013KT 9999 FEW003 BKN120 BKN150 M07/M12 A2930 RMK ACSL SW SLP927=
0213896640876012017012118004-77850+166667FM-12+002499999V0200601N006719999999N011000199-00681-01211099271ADDGA1011+000901071GA2041+036001031GA3999+999999001GE19MSL   +99999+99999GF106991011999000901999999MA1099245098861MD1710131+9999REMSYN07689664 32161 60613 11068 21121 39886 49927 57013 81641 333 56044 81703 84362=
0216896640876012017012120554-77850+166667FM-15+002499999V0200601N004610365819N009999199-00601-01301099151ADDGA1021+027431999GA2071+036581999GA3071+045721999GE19MSL   +99999+99999GF199999021999027431999999MA1099121098735REMMET093METAR NZCM 212055Z 06009KT 9999 FEW090 BKN120 BKN150 M06/M13 A2927 RMK ACSL SW CCSL N SLP915=
0197896640876012017012121004-77850+166667FM-12+002499999V0200601N00461036001CN011000199-00561-01261099151ADDGA1011+027001031GA2061+036001031GE19MSL   +99999+99999GF106991011999027001999999MA1099115098731MD1710131+9999REMSYN07689664 42961 60609 11056 21126 39873 49915 57013 86041 333 56044 81359 86362=
0186896640876012017012123554-77850+166667FM-15+002499999V0200401N006210457219N009999199-00401-01401099011ADDGA1041+025911999GA2071+045721999GE19MSL   +99999+99999GF199999041999025911999999MA1098951098605REMMET079METAR NZCM 212355Z 04012KT 9999 SCT085 BKN150 M04/M14 A2922 RMK ACSL SW SLP901=
0235896640876012017012200004-77850+166667FM-12+002499999V0200401N006219999999N011000199-00441-01361099011ADDGA1031+024001031GA2999+999999001GE19MSL   +99999+99999GF106991031999024001999999KA1120M-00351KA2120N-00721MA1098975098591MD1710141+9999REMSYN08889664 32961 60412 11044 21136 39859 49901 57014 83041 333 11035 21072 56044 59113 83358=
0201896640876012017012201574-77850+166667FM-15+002499999V0209999V00151027431CN009999199-00301-01101098821ADDGA1021+012191999GA2041+027431999GA3071+045721999GE19MSL   +99999+99999GF199999021999012191999999MA1098781098415REMMET078METAR NZCM 220157Z VRB03KT 9999 FEW040 SCT090 BKN150 M03/M11 A2917 RMK SLP882=
0218896640876012017012203004-77850+166667FM-12+002499999V0209999V001519999999N011000199-00281-01091098821ADDGA1011+012001061GA2031+027001031GA3999+999999001GE19MSL   +99999+99999GF105991011999012001999999MA1098795098411MD1710181+9999REMSYN08189664 42661 59903 11028 21109 39841 49882 57018 81542 333 56044 81640 83359 8506=
0200896640876012017012205554-77850+166667FM-15+002499999V0203101N00311045721CN009999199-00301-00901999999ADDGA1021+012191999GA2041+045721999GA3041+054861999GE19MSL   +99999+99999GF199999021999012191999999MA1098651999999REMMET077METAR NZCM 220555Z 31006KT 9999 FEW040 SCT150 SCT180 M03/M09 A2913 RMK SLPNO=
0200896640876012017012208554-77850+166667FM-15+002499999V0203401N00411045721CN009999199-00301-00801999999ADDGA1021+003051999GA2021+036581999GA3021+045721999GE19MSL   +99999+99999GF199999021999003051999999MA1098511999999REMMET077METAR NZCM 220855Z 34008KT 9999 FEW010 FEW120 FEW150 M03/M08 A2909 RMK SLPNO=
0195896640876012017012209004-77850+166667FM-12+002499999V0201001N016529999999N011000199+99999-00811999999ADDGA1011+003001061GA2999+999999031GA3999+999999001GE19MSL   +99999+99999GF101991011999003001999999MA1098535098151MD1710131+9999REMSYN05889664 42461 11032 21081 39815 57013 81531 333 56044 81610=
0192896640876012017012211554-77850+166667FM-15+002499999V0209999V002119999999N009999199-00301-00801999999ADDGA1021+003051999GA2021+045721999GE19MSL   +99999+99999GF199999021999003051999999MA1098371999999REMMET085METAR NZCM 221155Z VRB04KT 9999 FEW010 FEW150 M03/M08 A2905 RMK SLPNO FATA MORGANA W=
0197896640876012017012212004-77850+166667FM-12+002499999V0209999V002119999999N011000199-00321-00811098425ADDGA1011+003001061GA2999+999999001GE19MSL   +99999+99999GF101991011999003001999999MA1098385098011MD1710141+9999REMSYN07689664 32461 19904 11032 21081 39801 57014 81501 333 56004 59118 81610 99116=
0200896640876012017012214554-77850+166667FM-15+002499999V0209999V00211045721CN009999199-00301-00701999999ADDGA1021+003051999GA2021+039621999GA3021+045721999GE19MSL   +99999+99999GF199999021999003051999999MA1098311999999REMMET077METAR NZCM 221455Z VRB04KT 9999 FEW010 FEW130 FEW150 M03/M07 A2903 RMK SLPNO=
0201896640876012017012215004-77850+166667FM-12+002499999V0209999V002119999999N011000199-00261-00711098345ADDGA1011+003001071GA2999+999999031GA3999+999999001GE19MSL   +99999+99999GF101991011999003001999999MA1098305097931MD1710081+9999REMSYN06489664 42461 19904 11026 21071 39793 57008 81631 333 56844 81710=
0177896640876012017012217554-77850+166667FM-15+002499999V0203401N004610243819N009999199-00401-00901999999ADDGA1021+003051999GA2071+024381999GE19MSL   +99999+99999GF199999021999003051999999MA1098201999999REMMET070METAR NZCM 221755Z 34009KT 9999 FEW010 BKN080 M04/M09 A2900 RMK SLPNO=
0191896640876012017012218004-77850+166667FM-12+002499999V0203401N00461024001CN011000199-00401-00891098255ADDGA1011+003001071GA2061+024001031GE19MSL   +99999+99999GF106991011999003001999999MA1098215097841MD1710091+9999REMSYN07089664 32461 63409 11040 21089 39784 57009 81670 333 56840 81710 86358=
0200896640876012017012220554-77850+166667FM-15+002499999V0203101N002110243819N009999199-00101-00701999999ADDGA1021+003051999GA2021+012191999GA3071+024381999GE19MSL   +99999+99999GF199999021999003051999999MA1098201999999REMMET077METAR NZCM 222055Z 31004KT 9999 FEW010 FEW040 BKN080 M01/M07 A2900 RMK SLPNO=
0191896640876012017012221004-77850+166667FM-12+002499999V0203101N00211024001CN011000199-00151-00681098255ADDGA1011+003001071GA2051+024001031GE19MSL   +99999+99999GF105991011999003001999999MA1098215097841MD1410001+9999REMSYN07089664 42461 53104 11015 21068 39784 54000 81570 333 56040 81710 85358=
0200896640876012017012223554-77850+166667FM-15+002499999V0209999V00151045721CN009999199-00201-00701999999ADDGA1021+003051999GA2021+012191999GA3021+045721999GE19MSL   +99999+99999GF199999021999003051999999MA1098241999999REMMET077METAR NZCM 222355Z VRB03KT 9999 FEW010 FEW040 FEW150 M02/M07 A2901 RMK SLPNO=
